{
	"contracts/Community.sol": {
		"Community": {
			"abi": [
				{
					"anonymous": false,
					"inputs": [
						{
							"indexed": false,
							"internalType": "uint256",
							"name": "id",
							"type": "uint256"
						},
						{
							"indexed": false,
							"internalType": "address",
							"name": "author",
							"type": "address"
						},
						{
							"indexed": false,
							"internalType": "string",
							"name": "content",
							"type": "string"
						}
					],
					"name": "PostCreated",
					"type": "event"
				},
				{
					"anonymous": false,
					"inputs": [
						{
							"indexed": false,
							"internalType": "uint256",
							"name": "id",
							"type": "uint256"
						}
					],
					"name": "PostUpvoted",
					"type": "event"
				},
				{
					"inputs": [
						{
							"internalType": "string",
							"name": "content",
							"type": "string"
						}
					],
					"name": "createPost",
					"outputs": [],
					"stateMutability": "nonpayable",
					"type": "function"
				},
				{
					"inputs": [],
					"name": "postCount",
					"outputs": [
						{
							"internalType": "uint256",
							"name": "",
							"type": "uint256"
						}
					],
					"stateMutability": "view",
					"type": "function"
				},
				{
					"inputs": [
						{
							"internalType": "uint256",
							"name": "",
							"type": "uint256"
						}
					],
					"name": "posts",
					"outputs": [
						{
							"internalType": "uint256",
							"name": "id",
							"type": "uint256"
						},
						{
							"internalType": "address",
							"name": "author",
							"type": "address"
						},
						{
							"internalType": "string",
							"name": "content",
							"type": "string"
						},
						{
							"internalType": "uint256",
							"name": "upvotes",
							"type": "uint256"
						}
					],
					"stateMutability": "view",
					"type": "function"
				},
				{
					"inputs": [
						{
							"internalType": "uint256",
							"name": "postId",
							"type": "uint256"
						}
					],
					"name": "upvotePost",
					"outputs": [],
					"stateMutability": "nonpayable",
					"type": "function"
				}
			],
			"devdoc": {
				"kind": "dev",
				"methods": {},
				"version": 1
			},
			"evm": {
				"assembly": "    /* \"contracts/Community.sol\":60:733  contract Community {... */\n  mstore(0x40, 0x80)\n  callvalue\n  dup1\n  iszero\n  tag_1\n  jumpi\n  0x00\n  dup1\n  revert\ntag_1:\n  pop\n  dataSize(sub_0)\n  dup1\n  dataOffset(sub_0)\n  0x00\n  codecopy\n  0x00\n  return\nstop\n\nsub_0: assembly {\n        /* \"contracts/Community.sol\":60:733  contract Community {... */\n      mstore(0x40, 0x80)\n      callvalue\n      dup1\n      iszero\n      tag_1\n      jumpi\n      0x00\n      dup1\n      revert\n    tag_1:\n      pop\n      jumpi(tag_2, lt(calldatasize, 0x04))\n      shr(0xe0, calldataload(0x00))\n      dup1\n      0x0b1e7f83\n      eq\n      tag_3\n      jumpi\n      dup1\n      0x17906c2e\n      eq\n      tag_4\n      jumpi\n      dup1\n      0x8d2f8268\n      eq\n      tag_5\n      jumpi\n      dup1\n      0xc7303c61\n      eq\n      tag_6\n      jumpi\n    tag_2:\n      0x00\n      dup1\n      revert\n        /* \"contracts/Community.sol\":242:279  mapping(uint256 => Post) public posts */\n    tag_3:\n      tag_7\n      0x04\n      dup1\n      calldatasize\n      sub\n      dup2\n      add\n      swap1\n      tag_8\n      swap2\n      swap1\n      tag_9\n      jump\t// in\n    tag_8:\n      tag_10\n      jump\t// in\n    tag_7:\n      mload(0x40)\n      tag_11\n      swap5\n      swap4\n      swap3\n      swap2\n      swap1\n      tag_12\n      jump\t// in\n    tag_11:\n      mload(0x40)\n      dup1\n      swap2\n      sub\n      swap1\n      return\n        /* \"contracts/Community.sol\":211:235  uint256 public postCount */\n    tag_4:\n      tag_13\n      tag_14\n      jump\t// in\n    tag_13:\n      mload(0x40)\n      tag_15\n      swap2\n      swap1\n      tag_16\n      jump\t// in\n    tag_15:\n      mload(0x40)\n      dup1\n      swap2\n      sub\n      swap1\n      return\n        /* \"contracts/Community.sol\":610:730  function upvotePost(uint256 postId) public {... */\n    tag_5:\n      tag_17\n      0x04\n      dup1\n      calldatasize\n      sub\n      dup2\n      add\n      swap1\n      tag_18\n      swap2\n      swap1\n      tag_9\n      jump\t// in\n    tag_18:\n      tag_19\n      jump\t// in\n    tag_17:\n      stop\n        /* \"contracts/Community.sol\":394:602  function createPost(string memory content) public {... */\n    tag_6:\n      tag_20\n      0x04\n      dup1\n      calldatasize\n      sub\n      dup2\n      add\n      swap1\n      tag_21\n      swap2\n      swap1\n      tag_22\n      jump\t// in\n    tag_21:\n      tag_23\n      jump\t// in\n    tag_20:\n      stop\n        /* \"contracts/Community.sol\":242:279  mapping(uint256 => Post) public posts */\n    tag_10:\n      mstore(0x20, 0x01)\n      dup1\n      0x00\n      mstore\n      keccak256(0x00, 0x40)\n      0x00\n      swap2\n      pop\n      swap1\n      pop\n      dup1\n      0x00\n      add\n      sload\n      swap1\n      dup1\n      0x01\n      add\n      0x00\n      swap1\n      sload\n      swap1\n      0x0100\n      exp\n      swap1\n      div\n      0xffffffffffffffffffffffffffffffffffffffff\n      and\n      swap1\n      dup1\n      0x02\n      add\n      dup1\n      sload\n      tag_24\n      swap1\n      tag_25\n      jump\t// in\n    tag_24:\n      dup1\n      0x1f\n      add\n      0x20\n      dup1\n      swap2\n      div\n      mul\n      0x20\n      add\n      mload(0x40)\n      swap1\n      dup2\n      add\n      0x40\n      mstore\n      dup1\n      swap3\n      swap2\n      swap1\n      dup2\n      dup2\n      mstore\n      0x20\n      add\n      dup3\n      dup1\n      sload\n      tag_26\n      swap1\n      tag_25\n      jump\t// in\n    tag_26:\n      dup1\n      iszero\n      tag_27\n      jumpi\n      dup1\n      0x1f\n      lt\n      tag_28\n      jumpi\n      0x0100\n      dup1\n      dup4\n      sload\n      div\n      mul\n      dup4\n      mstore\n      swap2\n      0x20\n      add\n      swap2\n      jump(tag_27)\n    tag_28:\n      dup3\n      add\n      swap2\n      swap1\n      0x00\n      mstore\n      keccak256(0x00, 0x20)\n      swap1\n    tag_29:\n      dup2\n      sload\n      dup2\n      mstore\n      swap1\n      0x01\n      add\n      swap1\n      0x20\n      add\n      dup1\n      dup4\n      gt\n      tag_29\n      jumpi\n      dup3\n      swap1\n      sub\n      0x1f\n      and\n      dup3\n      add\n      swap2\n    tag_27:\n      pop\n      pop\n      pop\n      pop\n      pop\n      swap1\n      dup1\n      0x03\n      add\n      sload\n      swap1\n      pop\n      dup5\n      jump\t// out\n        /* \"contracts/Community.sol\":211:235  uint256 public postCount */\n    tag_14:\n      sload(0x00)\n      dup2\n      jump\t// out\n        /* \"contracts/Community.sol\":610:730  function upvotePost(uint256 postId) public {... */\n    tag_19:\n        /* \"contracts/Community.sol\":664:669  posts */\n      0x01\n        /* \"contracts/Community.sol\":664:677  posts[postId] */\n      0x00\n        /* \"contracts/Community.sol\":670:676  postId */\n      dup3\n        /* \"contracts/Community.sol\":664:677  posts[postId] */\n      dup2\n      mstore\n      0x20\n      add\n      swap1\n      dup2\n      mstore\n      0x20\n      add\n      0x00\n      keccak256\n        /* \"contracts/Community.sol\":664:685  posts[postId].upvotes */\n      0x03\n      add\n      0x00\n        /* \"contracts/Community.sol\":664:687  posts[postId].upvotes++ */\n      dup2\n      sload\n      dup1\n      swap3\n      swap2\n      swap1\n      tag_31\n      swap1\n      tag_32\n      jump\t// in\n    tag_31:\n      swap2\n      swap1\n      pop\n      sstore\n      pop\n        /* \"contracts/Community.sol\":703:722  PostUpvoted(postId) */\n      0x6a0b8f59f9c487e0ac936d2eeb3577465e68f3a095b52ded463ad57d37ae7a30\n        /* \"contracts/Community.sol\":715:721  postId */\n      dup2\n        /* \"contracts/Community.sol\":703:722  PostUpvoted(postId) */\n      mload(0x40)\n      tag_33\n      swap2\n      swap1\n      tag_16\n      jump\t// in\n    tag_33:\n      mload(0x40)\n      dup1\n      swap2\n      sub\n      swap1\n      log1\n        /* \"contracts/Community.sol\":610:730  function upvotePost(uint256 postId) public {... */\n      pop\n      jump\t// out\n        /* \"contracts/Community.sol\":394:602  function createPost(string memory content) public {... */\n    tag_23:\n        /* \"contracts/Community.sol\":455:464  postCount */\n      0x00\n      dup1\n        /* \"contracts/Community.sol\":455:466  postCount++ */\n      dup2\n      sload\n      dup1\n      swap3\n      swap2\n      swap1\n      tag_35\n      swap1\n      tag_32\n      jump\t// in\n    tag_35:\n      swap2\n      swap1\n      pop\n      sstore\n      pop\n        /* \"contracts/Community.sol\":496:535  Post(postCount, msg.sender, content, 0) */\n      mload(0x40)\n      dup1\n      0x80\n      add\n      0x40\n      mstore\n      dup1\n        /* \"contracts/Community.sol\":501:510  postCount */\n      sload(0x00)\n        /* \"contracts/Community.sol\":496:535  Post(postCount, msg.sender, content, 0) */\n      dup2\n      mstore\n      0x20\n      add\n        /* \"contracts/Community.sol\":512:522  msg.sender */\n      caller\n        /* \"contracts/Community.sol\":496:535  Post(postCount, msg.sender, content, 0) */\n      0xffffffffffffffffffffffffffffffffffffffff\n      and\n      dup2\n      mstore\n      0x20\n      add\n        /* \"contracts/Community.sol\":524:531  content */\n      dup3\n        /* \"contracts/Community.sol\":496:535  Post(postCount, msg.sender, content, 0) */\n      dup2\n      mstore\n      0x20\n      add\n        /* \"contracts/Community.sol\":533:534  0 */\n      0x00\n        /* \"contracts/Community.sol\":496:535  Post(postCount, msg.sender, content, 0) */\n      dup2\n      mstore\n      pop\n        /* \"contracts/Community.sol\":477:482  posts */\n      0x01\n        /* \"contracts/Community.sol\":477:493  posts[postCount] */\n      0x00\n        /* \"contracts/Community.sol\":483:492  postCount */\n      dup1\n      sload\n        /* \"contracts/Community.sol\":477:493  posts[postCount] */\n      dup2\n      mstore\n      0x20\n      add\n      swap1\n      dup2\n      mstore\n      0x20\n      add\n      0x00\n      keccak256\n        /* \"contracts/Community.sol\":477:535  posts[postCount] = Post(postCount, msg.sender, content, 0) */\n      0x00\n      dup3\n      add\n      mload\n      dup2\n      0x00\n      add\n      sstore\n      0x20\n      dup3\n      add\n      mload\n      dup2\n      0x01\n      add\n      exp(0x0100, 0x00)\n      dup2\n      sload\n      dup2\n      0xffffffffffffffffffffffffffffffffffffffff\n      mul\n      not\n      and\n      swap1\n      dup4\n      0xffffffffffffffffffffffffffffffffffffffff\n      and\n      mul\n      or\n      swap1\n      sstore\n      pop\n      0x40\n      dup3\n      add\n      mload\n      dup2\n      0x02\n      add\n      swap1\n      dup2\n      tag_36\n      swap2\n      swap1\n      tag_37\n      jump\t// in\n    tag_36:\n      pop\n      0x60\n      dup3\n      add\n      mload\n      dup2\n      0x03\n      add\n      sstore\n      swap1\n      pop\n      pop\n        /* \"contracts/Community.sol\":551:594  PostCreated(postCount, msg.sender, content) */\n      0x8e40a51278abe2f4b410c0a96ff0bdd024b22666ca334062bf72afd596984bd6\n        /* \"contracts/Community.sol\":563:572  postCount */\n      sload(0x00)\n        /* \"contracts/Community.sol\":574:584  msg.sender */\n      caller\n        /* \"contracts/Community.sol\":586:593  content */\n      dup4\n        /* \"contracts/Community.sol\":551:594  PostCreated(postCount, msg.sender, content) */\n      mload(0x40)\n      tag_38\n      swap4\n      swap3\n      swap2\n      swap1\n      tag_39\n      jump\t// in\n    tag_38:\n      mload(0x40)\n      dup1\n      swap2\n      sub\n      swap1\n      log1\n        /* \"contracts/Community.sol\":394:602  function createPost(string memory content) public {... */\n      pop\n      jump\t// out\n        /* \"#utility.yul\":7:82   */\n    tag_40:\n        /* \"#utility.yul\":40:46   */\n      0x00\n        /* \"#utility.yul\":73:75   */\n      0x40\n        /* \"#utility.yul\":67:76   */\n      mload\n        /* \"#utility.yul\":57:76   */\n      swap1\n      pop\n        /* \"#utility.yul\":7:82   */\n      swap1\n      jump\t// out\n        /* \"#utility.yul\":88:205   */\n    tag_41:\n        /* \"#utility.yul\":197:198   */\n      0x00\n        /* \"#utility.yul\":194:195   */\n      dup1\n        /* \"#utility.yul\":187:199   */\n      revert\n        /* \"#utility.yul\":211:328   */\n    tag_42:\n        /* \"#utility.yul\":320:321   */\n      0x00\n        /* \"#utility.yul\":317:318   */\n      dup1\n        /* \"#utility.yul\":310:322   */\n      revert\n        /* \"#utility.yul\":334:411   */\n    tag_43:\n        /* \"#utility.yul\":371:378   */\n      0x00\n        /* \"#utility.yul\":400:405   */\n      dup2\n        /* \"#utility.yul\":389:405   */\n      swap1\n      pop\n        /* \"#utility.yul\":334:411   */\n      swap2\n      swap1\n      pop\n      jump\t// out\n        /* \"#utility.yul\":417:539   */\n    tag_44:\n        /* \"#utility.yul\":490:514   */\n      tag_87\n        /* \"#utility.yul\":508:513   */\n      dup2\n        /* \"#utility.yul\":490:514   */\n      tag_43\n      jump\t// in\n    tag_87:\n        /* \"#utility.yul\":483:488   */\n      dup2\n        /* \"#utility.yul\":480:515   */\n      eq\n        /* \"#utility.yul\":470:533   */\n      tag_88\n      jumpi\n        /* \"#utility.yul\":529:530   */\n      0x00\n        /* \"#utility.yul\":526:527   */\n      dup1\n        /* \"#utility.yul\":519:531   */\n      revert\n        /* \"#utility.yul\":470:533   */\n    tag_88:\n        /* \"#utility.yul\":417:539   */\n      pop\n      jump\t// out\n        /* \"#utility.yul\":545:684   */\n    tag_45:\n        /* \"#utility.yul\":591:596   */\n      0x00\n        /* \"#utility.yul\":629:635   */\n      dup2\n        /* \"#utility.yul\":616:636   */\n      calldataload\n        /* \"#utility.yul\":607:636   */\n      swap1\n      pop\n        /* \"#utility.yul\":645:678   */\n      tag_90\n        /* \"#utility.yul\":672:677   */\n      dup2\n        /* \"#utility.yul\":645:678   */\n      tag_44\n      jump\t// in\n    tag_90:\n        /* \"#utility.yul\":545:684   */\n      swap3\n      swap2\n      pop\n      pop\n      jump\t// out\n        /* \"#utility.yul\":690:1019   */\n    tag_9:\n        /* \"#utility.yul\":749:755   */\n      0x00\n        /* \"#utility.yul\":798:800   */\n      0x20\n        /* \"#utility.yul\":786:795   */\n      dup3\n        /* \"#utility.yul\":777:784   */\n      dup5\n        /* \"#utility.yul\":773:796   */\n      sub\n        /* \"#utility.yul\":769:801   */\n      slt\n        /* \"#utility.yul\":766:885   */\n      iszero\n      tag_92\n      jumpi\n        /* \"#utility.yul\":804:883   */\n      tag_93\n      tag_41\n      jump\t// in\n    tag_93:\n        /* \"#utility.yul\":766:885   */\n    tag_92:\n        /* \"#utility.yul\":924:925   */\n      0x00\n        /* \"#utility.yul\":949:1002   */\n      tag_94\n        /* \"#utility.yul\":994:1001   */\n      dup5\n        /* \"#utility.yul\":985:991   */\n      dup3\n        /* \"#utility.yul\":974:983   */\n      dup6\n        /* \"#utility.yul\":970:992   */\n      add\n        /* \"#utility.yul\":949:1002   */\n      tag_45\n      jump\t// in\n    tag_94:\n        /* \"#utility.yul\":939:1002   */\n      swap2\n      pop\n        /* \"#utility.yul\":895:1012   */\n      pop\n        /* \"#utility.yul\":690:1019   */\n      swap3\n      swap2\n      pop\n      pop\n      jump\t// out\n        /* \"#utility.yul\":1025:1143   */\n    tag_46:\n        /* \"#utility.yul\":1112:1136   */\n      tag_96\n        /* \"#utility.yul\":1130:1135   */\n      dup2\n        /* \"#utility.yul\":1112:1136   */\n      tag_43\n      jump\t// in\n    tag_96:\n        /* \"#utility.yul\":1107:1110   */\n      dup3\n        /* \"#utility.yul\":1100:1137   */\n      mstore\n        /* \"#utility.yul\":1025:1143   */\n      pop\n      pop\n      jump\t// out\n        /* \"#utility.yul\":1149:1275   */\n    tag_47:\n        /* \"#utility.yul\":1186:1193   */\n      0x00\n        /* \"#utility.yul\":1226:1268   */\n      0xffffffffffffffffffffffffffffffffffffffff\n        /* \"#utility.yul\":1219:1224   */\n      dup3\n        /* \"#utility.yul\":1215:1269   */\n      and\n        /* \"#utility.yul\":1204:1269   */\n      swap1\n      pop\n        /* \"#utility.yul\":1149:1275   */\n      swap2\n      swap1\n      pop\n      jump\t// out\n        /* \"#utility.yul\":1281:1377   */\n    tag_48:\n        /* \"#utility.yul\":1318:1325   */\n      0x00\n        /* \"#utility.yul\":1347:1371   */\n      tag_99\n        /* \"#utility.yul\":1365:1370   */\n      dup3\n        /* \"#utility.yul\":1347:1371   */\n      tag_47\n      jump\t// in\n    tag_99:\n        /* \"#utility.yul\":1336:1371   */\n      swap1\n      pop\n        /* \"#utility.yul\":1281:1377   */\n      swap2\n      swap1\n      pop\n      jump\t// out\n        /* \"#utility.yul\":1383:1501   */\n    tag_49:\n        /* \"#utility.yul\":1470:1494   */\n      tag_101\n        /* \"#utility.yul\":1488:1493   */\n      dup2\n        /* \"#utility.yul\":1470:1494   */\n      tag_48\n      jump\t// in\n    tag_101:\n        /* \"#utility.yul\":1465:1468   */\n      dup3\n        /* \"#utility.yul\":1458:1495   */\n      mstore\n        /* \"#utility.yul\":1383:1501   */\n      pop\n      pop\n      jump\t// out\n        /* \"#utility.yul\":1507:1606   */\n    tag_50:\n        /* \"#utility.yul\":1559:1565   */\n      0x00\n        /* \"#utility.yul\":1593:1598   */\n      dup2\n        /* \"#utility.yul\":1587:1599   */\n      mload\n        /* \"#utility.yul\":1577:1599   */\n      swap1\n      pop\n        /* \"#utility.yul\":1507:1606   */\n      swap2\n      swap1\n      pop\n      jump\t// out\n        /* \"#utility.yul\":1612:1781   */\n    tag_51:\n        /* \"#utility.yul\":1696:1707   */\n      0x00\n        /* \"#utility.yul\":1730:1736   */\n      dup3\n        /* \"#utility.yul\":1725:1728   */\n      dup3\n        /* \"#utility.yul\":1718:1737   */\n      mstore\n        /* \"#utility.yul\":1770:1774   */\n      0x20\n        /* \"#utility.yul\":1765:1768   */\n      dup3\n        /* \"#utility.yul\":1761:1775   */\n      add\n        /* \"#utility.yul\":1746:1775   */\n      swap1\n      pop\n        /* \"#utility.yul\":1612:1781   */\n      swap3\n      swap2\n      pop\n      pop\n      jump\t// out\n        /* \"#utility.yul\":1787:1926   */\n    tag_52:\n        /* \"#utility.yul\":1876:1882   */\n      dup3\n        /* \"#utility.yul\":1871:1874   */\n      dup2\n        /* \"#utility.yul\":1866:1869   */\n      dup4\n        /* \"#utility.yul\":1860:1883   */\n      mcopy\n        /* \"#utility.yul\":1917:1918   */\n      0x00\n        /* \"#utility.yul\":1908:1914   */\n      dup4\n        /* \"#utility.yul\":1903:1906   */\n      dup4\n        /* \"#utility.yul\":1899:1915   */\n      add\n        /* \"#utility.yul\":1892:1919   */\n      mstore\n        /* \"#utility.yul\":1787:1926   */\n      pop\n      pop\n      pop\n      jump\t// out\n        /* \"#utility.yul\":1932:2034   */\n    tag_53:\n        /* \"#utility.yul\":1973:1979   */\n      0x00\n        /* \"#utility.yul\":2024:2026   */\n      0x1f\n        /* \"#utility.yul\":2020:2027   */\n      not\n        /* \"#utility.yul\":2015:2017   */\n      0x1f\n        /* \"#utility.yul\":2008:2013   */\n      dup4\n        /* \"#utility.yul\":2004:2018   */\n      add\n        /* \"#utility.yul\":2000:2028   */\n      and\n        /* \"#utility.yul\":1990:2028   */\n      swap1\n      pop\n        /* \"#utility.yul\":1932:2034   */\n      swap2\n      swap1\n      pop\n      jump\t// out\n        /* \"#utility.yul\":2040:2417   */\n    tag_54:\n        /* \"#utility.yul\":2128:2131   */\n      0x00\n        /* \"#utility.yul\":2156:2195   */\n      tag_107\n        /* \"#utility.yul\":2189:2194   */\n      dup3\n        /* \"#utility.yul\":2156:2195   */\n      tag_50\n      jump\t// in\n    tag_107:\n        /* \"#utility.yul\":2211:2282   */\n      tag_108\n        /* \"#utility.yul\":2275:2281   */\n      dup2\n        /* \"#utility.yul\":2270:2273   */\n      dup6\n        /* \"#utility.yul\":2211:2282   */\n      tag_51\n      jump\t// in\n    tag_108:\n        /* \"#utility.yul\":2204:2282   */\n      swap4\n      pop\n        /* \"#utility.yul\":2291:2356   */\n      tag_109\n        /* \"#utility.yul\":2349:2355   */\n      dup2\n        /* \"#utility.yul\":2344:2347   */\n      dup6\n        /* \"#utility.yul\":2337:2341   */\n      0x20\n        /* \"#utility.yul\":2330:2335   */\n      dup7\n        /* \"#utility.yul\":2326:2342   */\n      add\n        /* \"#utility.yul\":2291:2356   */\n      tag_52\n      jump\t// in\n    tag_109:\n        /* \"#utility.yul\":2381:2410   */\n      tag_110\n        /* \"#utility.yul\":2403:2409   */\n      dup2\n        /* \"#utility.yul\":2381:2410   */\n      tag_53\n      jump\t// in\n    tag_110:\n        /* \"#utility.yul\":2376:2379   */\n      dup5\n        /* \"#utility.yul\":2372:2411   */\n      add\n        /* \"#utility.yul\":2365:2411   */\n      swap2\n      pop\n        /* \"#utility.yul\":2132:2417   */\n      pop\n        /* \"#utility.yul\":2040:2417   */\n      swap3\n      swap2\n      pop\n      pop\n      jump\t// out\n        /* \"#utility.yul\":2423:3067   */\n    tag_12:\n        /* \"#utility.yul\":2620:2624   */\n      0x00\n        /* \"#utility.yul\":2658:2661   */\n      0x80\n        /* \"#utility.yul\":2647:2656   */\n      dup3\n        /* \"#utility.yul\":2643:2662   */\n      add\n        /* \"#utility.yul\":2635:2662   */\n      swap1\n      pop\n        /* \"#utility.yul\":2672:2743   */\n      tag_112\n        /* \"#utility.yul\":2740:2741   */\n      0x00\n        /* \"#utility.yul\":2729:2738   */\n      dup4\n        /* \"#utility.yul\":2725:2742   */\n      add\n        /* \"#utility.yul\":2716:2722   */\n      dup8\n        /* \"#utility.yul\":2672:2743   */\n      tag_46\n      jump\t// in\n    tag_112:\n        /* \"#utility.yul\":2753:2825   */\n      tag_113\n        /* \"#utility.yul\":2821:2823   */\n      0x20\n        /* \"#utility.yul\":2810:2819   */\n      dup4\n        /* \"#utility.yul\":2806:2824   */\n      add\n        /* \"#utility.yul\":2797:2803   */\n      dup7\n        /* \"#utility.yul\":2753:2825   */\n      tag_49\n      jump\t// in\n    tag_113:\n        /* \"#utility.yul\":2872:2881   */\n      dup2\n        /* \"#utility.yul\":2866:2870   */\n      dup2\n        /* \"#utility.yul\":2862:2882   */\n      sub\n        /* \"#utility.yul\":2857:2859   */\n      0x40\n        /* \"#utility.yul\":2846:2855   */\n      dup4\n        /* \"#utility.yul\":2842:2860   */\n      add\n        /* \"#utility.yul\":2835:2883   */\n      mstore\n        /* \"#utility.yul\":2900:2978   */\n      tag_114\n        /* \"#utility.yul\":2973:2977   */\n      dup2\n        /* \"#utility.yul\":2964:2970   */\n      dup6\n        /* \"#utility.yul\":2900:2978   */\n      tag_54\n      jump\t// in\n    tag_114:\n        /* \"#utility.yul\":2892:2978   */\n      swap1\n      pop\n        /* \"#utility.yul\":2988:3060   */\n      tag_115\n        /* \"#utility.yul\":3056:3058   */\n      0x60\n        /* \"#utility.yul\":3045:3054   */\n      dup4\n        /* \"#utility.yul\":3041:3059   */\n      add\n        /* \"#utility.yul\":3032:3038   */\n      dup5\n        /* \"#utility.yul\":2988:3060   */\n      tag_46\n      jump\t// in\n    tag_115:\n        /* \"#utility.yul\":2423:3067   */\n      swap6\n      swap5\n      pop\n      pop\n      pop\n      pop\n      pop\n      jump\t// out\n        /* \"#utility.yul\":3073:3295   */\n    tag_16:\n        /* \"#utility.yul\":3166:3170   */\n      0x00\n        /* \"#utility.yul\":3204:3206   */\n      0x20\n        /* \"#utility.yul\":3193:3202   */\n      dup3\n        /* \"#utility.yul\":3189:3207   */\n      add\n        /* \"#utility.yul\":3181:3207   */\n      swap1\n      pop\n        /* \"#utility.yul\":3217:3288   */\n      tag_117\n        /* \"#utility.yul\":3285:3286   */\n      0x00\n        /* \"#utility.yul\":3274:3283   */\n      dup4\n        /* \"#utility.yul\":3270:3287   */\n      add\n        /* \"#utility.yul\":3261:3267   */\n      dup5\n        /* \"#utility.yul\":3217:3288   */\n      tag_46\n      jump\t// in\n    tag_117:\n        /* \"#utility.yul\":3073:3295   */\n      swap3\n      swap2\n      pop\n      pop\n      jump\t// out\n        /* \"#utility.yul\":3301:3418   */\n    tag_55:\n        /* \"#utility.yul\":3410:3411   */\n      0x00\n        /* \"#utility.yul\":3407:3408   */\n      dup1\n        /* \"#utility.yul\":3400:3412   */\n      revert\n        /* \"#utility.yul\":3424:3541   */\n    tag_56:\n        /* \"#utility.yul\":3533:3534   */\n      0x00\n        /* \"#utility.yul\":3530:3531   */\n      dup1\n        /* \"#utility.yul\":3523:3535   */\n      revert\n        /* \"#utility.yul\":3547:3727   */\n    tag_57:\n        /* \"#utility.yul\":3595:3672   */\n      0x4e487b7100000000000000000000000000000000000000000000000000000000\n        /* \"#utility.yul\":3592:3593   */\n      0x00\n        /* \"#utility.yul\":3585:3673   */\n      mstore\n        /* \"#utility.yul\":3692:3696   */\n      0x41\n        /* \"#utility.yul\":3689:3690   */\n      0x04\n        /* \"#utility.yul\":3682:3697   */\n      mstore\n        /* \"#utility.yul\":3716:3720   */\n      0x24\n        /* \"#utility.yul\":3713:3714   */\n      0x00\n        /* \"#utility.yul\":3706:3721   */\n      revert\n        /* \"#utility.yul\":3733:4014   */\n    tag_58:\n        /* \"#utility.yul\":3816:3843   */\n      tag_122\n        /* \"#utility.yul\":3838:3842   */\n      dup3\n        /* \"#utility.yul\":3816:3843   */\n      tag_53\n      jump\t// in\n    tag_122:\n        /* \"#utility.yul\":3808:3814   */\n      dup2\n        /* \"#utility.yul\":3804:3844   */\n      add\n        /* \"#utility.yul\":3946:3952   */\n      dup2\n        /* \"#utility.yul\":3934:3944   */\n      dup2\n        /* \"#utility.yul\":3931:3953   */\n      lt\n        /* \"#utility.yul\":3910:3928   */\n      0xffffffffffffffff\n        /* \"#utility.yul\":3898:3908   */\n      dup3\n        /* \"#utility.yul\":3895:3929   */\n      gt\n        /* \"#utility.yul\":3892:3954   */\n      or\n        /* \"#utility.yul\":3889:3977   */\n      iszero\n      tag_123\n      jumpi\n        /* \"#utility.yul\":3957:3975   */\n      tag_124\n      tag_57\n      jump\t// in\n    tag_124:\n        /* \"#utility.yul\":3889:3977   */\n    tag_123:\n        /* \"#utility.yul\":3997:4007   */\n      dup1\n        /* \"#utility.yul\":3993:3995   */\n      0x40\n        /* \"#utility.yul\":3986:4008   */\n      mstore\n        /* \"#utility.yul\":3776:4014   */\n      pop\n        /* \"#utility.yul\":3733:4014   */\n      pop\n      pop\n      jump\t// out\n        /* \"#utility.yul\":4020:4149   */\n    tag_59:\n        /* \"#utility.yul\":4054:4060   */\n      0x00\n        /* \"#utility.yul\":4081:4101   */\n      tag_126\n      tag_40\n      jump\t// in\n    tag_126:\n        /* \"#utility.yul\":4071:4101   */\n      swap1\n      pop\n        /* \"#utility.yul\":4110:4143   */\n      tag_127\n        /* \"#utility.yul\":4138:4142   */\n      dup3\n        /* \"#utility.yul\":4130:4136   */\n      dup3\n        /* \"#utility.yul\":4110:4143   */\n      tag_58\n      jump\t// in\n    tag_127:\n        /* \"#utility.yul\":4020:4149   */\n      swap2\n      swap1\n      pop\n      jump\t// out\n        /* \"#utility.yul\":4155:4463   */\n    tag_60:\n        /* \"#utility.yul\":4217:4221   */\n      0x00\n        /* \"#utility.yul\":4307:4325   */\n      0xffffffffffffffff\n        /* \"#utility.yul\":4299:4305   */\n      dup3\n        /* \"#utility.yul\":4296:4326   */\n      gt\n        /* \"#utility.yul\":4293:4349   */\n      iszero\n      tag_129\n      jumpi\n        /* \"#utility.yul\":4329:4347   */\n      tag_130\n      tag_57\n      jump\t// in\n    tag_130:\n        /* \"#utility.yul\":4293:4349   */\n    tag_129:\n        /* \"#utility.yul\":4367:4396   */\n      tag_131\n        /* \"#utility.yul\":4389:4395   */\n      dup3\n        /* \"#utility.yul\":4367:4396   */\n      tag_53\n      jump\t// in\n    tag_131:\n        /* \"#utility.yul\":4359:4396   */\n      swap1\n      pop\n        /* \"#utility.yul\":4451:4455   */\n      0x20\n        /* \"#utility.yul\":4445:4449   */\n      dup2\n        /* \"#utility.yul\":4441:4456   */\n      add\n        /* \"#utility.yul\":4433:4456   */\n      swap1\n      pop\n        /* \"#utility.yul\":4155:4463   */\n      swap2\n      swap1\n      pop\n      jump\t// out\n        /* \"#utility.yul\":4469:4617   */\n    tag_61:\n        /* \"#utility.yul\":4567:4573   */\n      dup3\n        /* \"#utility.yul\":4562:4565   */\n      dup2\n        /* \"#utility.yul\":4557:4560   */\n      dup4\n        /* \"#utility.yul\":4544:4574   */\n      calldatacopy\n        /* \"#utility.yul\":4608:4609   */\n      0x00\n        /* \"#utility.yul\":4599:4605   */\n      dup4\n        /* \"#utility.yul\":4594:4597   */\n      dup4\n        /* \"#utility.yul\":4590:4606   */\n      add\n        /* \"#utility.yul\":4583:4610   */\n      mstore\n        /* \"#utility.yul\":4469:4617   */\n      pop\n      pop\n      pop\n      jump\t// out\n        /* \"#utility.yul\":4623:5048   */\n    tag_62:\n        /* \"#utility.yul\":4701:4706   */\n      0x00\n        /* \"#utility.yul\":4726:4792   */\n      tag_134\n        /* \"#utility.yul\":4742:4791   */\n      tag_135\n        /* \"#utility.yul\":4784:4790   */\n      dup5\n        /* \"#utility.yul\":4742:4791   */\n      tag_60\n      jump\t// in\n    tag_135:\n        /* \"#utility.yul\":4726:4792   */\n      tag_59\n      jump\t// in\n    tag_134:\n        /* \"#utility.yul\":4717:4792   */\n      swap1\n      pop\n        /* \"#utility.yul\":4815:4821   */\n      dup3\n        /* \"#utility.yul\":4808:4813   */\n      dup2\n        /* \"#utility.yul\":4801:4822   */\n      mstore\n        /* \"#utility.yul\":4853:4857   */\n      0x20\n        /* \"#utility.yul\":4846:4851   */\n      dup2\n        /* \"#utility.yul\":4842:4858   */\n      add\n        /* \"#utility.yul\":4891:4894   */\n      dup5\n        /* \"#utility.yul\":4882:4888   */\n      dup5\n        /* \"#utility.yul\":4877:4880   */\n      dup5\n        /* \"#utility.yul\":4873:4889   */\n      add\n        /* \"#utility.yul\":4870:4895   */\n      gt\n        /* \"#utility.yul\":4867:4979   */\n      iszero\n      tag_136\n      jumpi\n        /* \"#utility.yul\":4898:4977   */\n      tag_137\n      tag_56\n      jump\t// in\n    tag_137:\n        /* \"#utility.yul\":4867:4979   */\n    tag_136:\n        /* \"#utility.yul\":4988:5042   */\n      tag_138\n        /* \"#utility.yul\":5035:5041   */\n      dup5\n        /* \"#utility.yul\":5030:5033   */\n      dup3\n        /* \"#utility.yul\":5025:5028   */\n      dup6\n        /* \"#utility.yul\":4988:5042   */\n      tag_61\n      jump\t// in\n    tag_138:\n        /* \"#utility.yul\":4707:5048   */\n      pop\n        /* \"#utility.yul\":4623:5048   */\n      swap4\n      swap3\n      pop\n      pop\n      pop\n      jump\t// out\n        /* \"#utility.yul\":5068:5408   */\n    tag_63:\n        /* \"#utility.yul\":5124:5129   */\n      0x00\n        /* \"#utility.yul\":5173:5176   */\n      dup3\n        /* \"#utility.yul\":5166:5170   */\n      0x1f\n        /* \"#utility.yul\":5158:5164   */\n      dup4\n        /* \"#utility.yul\":5154:5171   */\n      add\n        /* \"#utility.yul\":5150:5177   */\n      slt\n        /* \"#utility.yul\":5140:5262   */\n      tag_140\n      jumpi\n        /* \"#utility.yul\":5181:5260   */\n      tag_141\n      tag_55\n      jump\t// in\n    tag_141:\n        /* \"#utility.yul\":5140:5262   */\n    tag_140:\n        /* \"#utility.yul\":5298:5304   */\n      dup2\n        /* \"#utility.yul\":5285:5305   */\n      calldataload\n        /* \"#utility.yul\":5323:5402   */\n      tag_142\n        /* \"#utility.yul\":5398:5401   */\n      dup5\n        /* \"#utility.yul\":5390:5396   */\n      dup3\n        /* \"#utility.yul\":5383:5387   */\n      0x20\n        /* \"#utility.yul\":5375:5381   */\n      dup7\n        /* \"#utility.yul\":5371:5388   */\n      add\n        /* \"#utility.yul\":5323:5402   */\n      tag_62\n      jump\t// in\n    tag_142:\n        /* \"#utility.yul\":5314:5402   */\n      swap2\n      pop\n        /* \"#utility.yul\":5130:5408   */\n      pop\n        /* \"#utility.yul\":5068:5408   */\n      swap3\n      swap2\n      pop\n      pop\n      jump\t// out\n        /* \"#utility.yul\":5414:5923   */\n    tag_22:\n        /* \"#utility.yul\":5483:5489   */\n      0x00\n        /* \"#utility.yul\":5532:5534   */\n      0x20\n        /* \"#utility.yul\":5520:5529   */\n      dup3\n        /* \"#utility.yul\":5511:5518   */\n      dup5\n        /* \"#utility.yul\":5507:5530   */\n      sub\n        /* \"#utility.yul\":5503:5535   */\n      slt\n        /* \"#utility.yul\":5500:5619   */\n      iszero\n      tag_144\n      jumpi\n        /* \"#utility.yul\":5538:5617   */\n      tag_145\n      tag_41\n      jump\t// in\n    tag_145:\n        /* \"#utility.yul\":5500:5619   */\n    tag_144:\n        /* \"#utility.yul\":5686:5687   */\n      0x00\n        /* \"#utility.yul\":5675:5684   */\n      dup3\n        /* \"#utility.yul\":5671:5688   */\n      add\n        /* \"#utility.yul\":5658:5689   */\n      calldataload\n        /* \"#utility.yul\":5716:5734   */\n      0xffffffffffffffff\n        /* \"#utility.yul\":5708:5714   */\n      dup2\n        /* \"#utility.yul\":5705:5735   */\n      gt\n        /* \"#utility.yul\":5702:5819   */\n      iszero\n      tag_146\n      jumpi\n        /* \"#utility.yul\":5738:5817   */\n      tag_147\n      tag_42\n      jump\t// in\n    tag_147:\n        /* \"#utility.yul\":5702:5819   */\n    tag_146:\n        /* \"#utility.yul\":5843:5906   */\n      tag_148\n        /* \"#utility.yul\":5898:5905   */\n      dup5\n        /* \"#utility.yul\":5889:5895   */\n      dup3\n        /* \"#utility.yul\":5878:5887   */\n      dup6\n        /* \"#utility.yul\":5874:5896   */\n      add\n        /* \"#utility.yul\":5843:5906   */\n      tag_63\n      jump\t// in\n    tag_148:\n        /* \"#utility.yul\":5833:5906   */\n      swap2\n      pop\n        /* \"#utility.yul\":5629:5916   */\n      pop\n        /* \"#utility.yul\":5414:5923   */\n      swap3\n      swap2\n      pop\n      pop\n      jump\t// out\n        /* \"#utility.yul\":5929:6109   */\n    tag_64:\n        /* \"#utility.yul\":5977:6054   */\n      0x4e487b7100000000000000000000000000000000000000000000000000000000\n        /* \"#utility.yul\":5974:5975   */\n      0x00\n        /* \"#utility.yul\":5967:6055   */\n      mstore\n        /* \"#utility.yul\":6074:6078   */\n      0x22\n        /* \"#utility.yul\":6071:6072   */\n      0x04\n        /* \"#utility.yul\":6064:6079   */\n      mstore\n        /* \"#utility.yul\":6098:6102   */\n      0x24\n        /* \"#utility.yul\":6095:6096   */\n      0x00\n        /* \"#utility.yul\":6088:6103   */\n      revert\n        /* \"#utility.yul\":6115:6435   */\n    tag_25:\n        /* \"#utility.yul\":6159:6165   */\n      0x00\n        /* \"#utility.yul\":6196:6197   */\n      0x02\n        /* \"#utility.yul\":6190:6194   */\n      dup3\n        /* \"#utility.yul\":6186:6198   */\n      div\n        /* \"#utility.yul\":6176:6198   */\n      swap1\n      pop\n        /* \"#utility.yul\":6243:6244   */\n      0x01\n        /* \"#utility.yul\":6237:6241   */\n      dup3\n        /* \"#utility.yul\":6233:6245   */\n      and\n        /* \"#utility.yul\":6264:6282   */\n      dup1\n        /* \"#utility.yul\":6254:6335   */\n      tag_151\n      jumpi\n        /* \"#utility.yul\":6320:6324   */\n      0x7f\n        /* \"#utility.yul\":6312:6318   */\n      dup3\n        /* \"#utility.yul\":6308:6325   */\n      and\n        /* \"#utility.yul\":6298:6325   */\n      swap2\n      pop\n        /* \"#utility.yul\":6254:6335   */\n    tag_151:\n        /* \"#utility.yul\":6382:6384   */\n      0x20\n        /* \"#utility.yul\":6374:6380   */\n      dup3\n        /* \"#utility.yul\":6371:6385   */\n      lt\n        /* \"#utility.yul\":6351:6369   */\n      dup2\n        /* \"#utility.yul\":6348:6386   */\n      sub\n        /* \"#utility.yul\":6345:6429   */\n      tag_152\n      jumpi\n        /* \"#utility.yul\":6401:6419   */\n      tag_153\n      tag_64\n      jump\t// in\n    tag_153:\n        /* \"#utility.yul\":6345:6429   */\n    tag_152:\n        /* \"#utility.yul\":6166:6435   */\n      pop\n        /* \"#utility.yul\":6115:6435   */\n      swap2\n      swap1\n      pop\n      jump\t// out\n        /* \"#utility.yul\":6441:6621   */\n    tag_65:\n        /* \"#utility.yul\":6489:6566   */\n      0x4e487b7100000000000000000000000000000000000000000000000000000000\n        /* \"#utility.yul\":6486:6487   */\n      0x00\n        /* \"#utility.yul\":6479:6567   */\n      mstore\n        /* \"#utility.yul\":6586:6590   */\n      0x11\n        /* \"#utility.yul\":6583:6584   */\n      0x04\n        /* \"#utility.yul\":6576:6591   */\n      mstore\n        /* \"#utility.yul\":6610:6614   */\n      0x24\n        /* \"#utility.yul\":6607:6608   */\n      0x00\n        /* \"#utility.yul\":6600:6615   */\n      revert\n        /* \"#utility.yul\":6627:6860   */\n    tag_32:\n        /* \"#utility.yul\":6666:6669   */\n      0x00\n        /* \"#utility.yul\":6689:6713   */\n      tag_156\n        /* \"#utility.yul\":6707:6712   */\n      dup3\n        /* \"#utility.yul\":6689:6713   */\n      tag_43\n      jump\t// in\n    tag_156:\n        /* \"#utility.yul\":6680:6713   */\n      swap2\n      pop\n        /* \"#utility.yul\":6735:6801   */\n      0xffffffffffffffffffffffffffffffffffffffffffffffffffffffffffffffff\n        /* \"#utility.yul\":6728:6733   */\n      dup3\n        /* \"#utility.yul\":6725:6802   */\n      sub\n        /* \"#utility.yul\":6722:6825   */\n      tag_157\n      jumpi\n        /* \"#utility.yul\":6805:6823   */\n      tag_158\n      tag_65\n      jump\t// in\n    tag_158:\n        /* \"#utility.yul\":6722:6825   */\n    tag_157:\n        /* \"#utility.yul\":6852:6853   */\n      0x01\n        /* \"#utility.yul\":6845:6850   */\n      dup3\n        /* \"#utility.yul\":6841:6854   */\n      add\n        /* \"#utility.yul\":6834:6854   */\n      swap1\n      pop\n        /* \"#utility.yul\":6627:6860   */\n      swap2\n      swap1\n      pop\n      jump\t// out\n        /* \"#utility.yul\":6866:7007   */\n    tag_66:\n        /* \"#utility.yul\":6915:6919   */\n      0x00\n        /* \"#utility.yul\":6938:6941   */\n      dup2\n        /* \"#utility.yul\":6930:6941   */\n      swap1\n      pop\n        /* \"#utility.yul\":6961:6964   */\n      dup2\n        /* \"#utility.yul\":6958:6959   */\n      0x00\n        /* \"#utility.yul\":6951:6965   */\n      mstore\n        /* \"#utility.yul\":6995:6999   */\n      0x20\n        /* \"#utility.yul\":6992:6993   */\n      0x00\n        /* \"#utility.yul\":6982:7000   */\n      keccak256\n        /* \"#utility.yul\":6974:7000   */\n      swap1\n      pop\n        /* \"#utility.yul\":6866:7007   */\n      swap2\n      swap1\n      pop\n      jump\t// out\n        /* \"#utility.yul\":7013:7106   */\n    tag_67:\n        /* \"#utility.yul\":7050:7056   */\n      0x00\n        /* \"#utility.yul\":7097:7099   */\n      0x20\n        /* \"#utility.yul\":7092:7094   */\n      0x1f\n        /* \"#utility.yul\":7085:7090   */\n      dup4\n        /* \"#utility.yul\":7081:7095   */\n      add\n        /* \"#utility.yul\":7077:7100   */\n      div\n        /* \"#utility.yul\":7067:7100   */\n      swap1\n      pop\n        /* \"#utility.yul\":7013:7106   */\n      swap2\n      swap1\n      pop\n      jump\t// out\n        /* \"#utility.yul\":7112:7219   */\n    tag_68:\n        /* \"#utility.yul\":7156:7164   */\n      0x00\n        /* \"#utility.yul\":7206:7211   */\n      dup3\n        /* \"#utility.yul\":7200:7204   */\n      dup3\n        /* \"#utility.yul\":7196:7212   */\n      shl\n        /* \"#utility.yul\":7175:7212   */\n      swap1\n      pop\n        /* \"#utility.yul\":7112:7219   */\n      swap3\n      swap2\n      pop\n      pop\n      jump\t// out\n        /* \"#utility.yul\":7225:7618   */\n    tag_69:\n        /* \"#utility.yul\":7294:7300   */\n      0x00\n        /* \"#utility.yul\":7344:7345   */\n      0x08\n        /* \"#utility.yul\":7332:7342   */\n      dup4\n        /* \"#utility.yul\":7328:7346   */\n      mul\n        /* \"#utility.yul\":7367:7464   */\n      tag_163\n        /* \"#utility.yul\":7397:7463   */\n      0xffffffffffffffffffffffffffffffffffffffffffffffffffffffffffffffff\n        /* \"#utility.yul\":7386:7395   */\n      dup3\n        /* \"#utility.yul\":7367:7464   */\n      tag_68\n      jump\t// in\n    tag_163:\n        /* \"#utility.yul\":7485:7524   */\n      tag_164\n        /* \"#utility.yul\":7515:7523   */\n      dup7\n        /* \"#utility.yul\":7504:7513   */\n      dup4\n        /* \"#utility.yul\":7485:7524   */\n      tag_68\n      jump\t// in\n    tag_164:\n        /* \"#utility.yul\":7473:7524   */\n      swap6\n      pop\n        /* \"#utility.yul\":7557:7561   */\n      dup1\n        /* \"#utility.yul\":7553:7562   */\n      not\n        /* \"#utility.yul\":7546:7551   */\n      dup5\n        /* \"#utility.yul\":7542:7563   */\n      and\n        /* \"#utility.yul\":7533:7563   */\n      swap4\n      pop\n        /* \"#utility.yul\":7606:7610   */\n      dup1\n        /* \"#utility.yul\":7596:7604   */\n      dup7\n        /* \"#utility.yul\":7592:7611   */\n      and\n        /* \"#utility.yul\":7585:7590   */\n      dup5\n        /* \"#utility.yul\":7582:7612   */\n      or\n        /* \"#utility.yul\":7572:7612   */\n      swap3\n      pop\n        /* \"#utility.yul\":7301:7618   */\n      pop\n      pop\n        /* \"#utility.yul\":7225:7618   */\n      swap4\n      swap3\n      pop\n      pop\n      pop\n      jump\t// out\n        /* \"#utility.yul\":7624:7684   */\n    tag_70:\n        /* \"#utility.yul\":7652:7655   */\n      0x00\n        /* \"#utility.yul\":7673:7678   */\n      dup2\n        /* \"#utility.yul\":7666:7678   */\n      swap1\n      pop\n        /* \"#utility.yul\":7624:7684   */\n      swap2\n      swap1\n      pop\n      jump\t// out\n        /* \"#utility.yul\":7690:7832   */\n    tag_71:\n        /* \"#utility.yul\":7740:7749   */\n      0x00\n        /* \"#utility.yul\":7773:7826   */\n      tag_167\n        /* \"#utility.yul\":7791:7825   */\n      tag_168\n        /* \"#utility.yul\":7800:7824   */\n      tag_169\n        /* \"#utility.yul\":7818:7823   */\n      dup5\n        /* \"#utility.yul\":7800:7824   */\n      tag_43\n      jump\t// in\n    tag_169:\n        /* \"#utility.yul\":7791:7825   */\n      tag_70\n      jump\t// in\n    tag_168:\n        /* \"#utility.yul\":7773:7826   */\n      tag_43\n      jump\t// in\n    tag_167:\n        /* \"#utility.yul\":7760:7826   */\n      swap1\n      pop\n        /* \"#utility.yul\":7690:7832   */\n      swap2\n      swap1\n      pop\n      jump\t// out\n        /* \"#utility.yul\":7838:7913   */\n    tag_72:\n        /* \"#utility.yul\":7881:7884   */\n      0x00\n        /* \"#utility.yul\":7902:7907   */\n      dup2\n        /* \"#utility.yul\":7895:7907   */\n      swap1\n      pop\n        /* \"#utility.yul\":7838:7913   */\n      swap2\n      swap1\n      pop\n      jump\t// out\n        /* \"#utility.yul\":7919:8188   */\n    tag_73:\n        /* \"#utility.yul\":8029:8068   */\n      tag_172\n        /* \"#utility.yul\":8060:8067   */\n      dup4\n        /* \"#utility.yul\":8029:8068   */\n      tag_71\n      jump\t// in\n    tag_172:\n        /* \"#utility.yul\":8090:8181   */\n      tag_173\n        /* \"#utility.yul\":8139:8180   */\n      tag_174\n        /* \"#utility.yul\":8163:8179   */\n      dup3\n        /* \"#utility.yul\":8139:8180   */\n      tag_72\n      jump\t// in\n    tag_174:\n        /* \"#utility.yul\":8131:8137   */\n      dup5\n        /* \"#utility.yul\":8124:8128   */\n      dup5\n        /* \"#utility.yul\":8118:8129   */\n      sload\n        /* \"#utility.yul\":8090:8181   */\n      tag_69\n      jump\t// in\n    tag_173:\n        /* \"#utility.yul\":8084:8088   */\n      dup3\n        /* \"#utility.yul\":8077:8182   */\n      sstore\n        /* \"#utility.yul\":7995:8188   */\n      pop\n        /* \"#utility.yul\":7919:8188   */\n      pop\n      pop\n      pop\n      jump\t// out\n        /* \"#utility.yul\":8194:8267   */\n    tag_74:\n        /* \"#utility.yul\":8239:8242   */\n      0x00\n        /* \"#utility.yul\":8194:8267   */\n      swap1\n      jump\t// out\n        /* \"#utility.yul\":8273:8462   */\n    tag_75:\n        /* \"#utility.yul\":8350:8382   */\n      tag_177\n      tag_74\n      jump\t// in\n    tag_177:\n        /* \"#utility.yul\":8391:8456   */\n      tag_178\n        /* \"#utility.yul\":8449:8455   */\n      dup2\n        /* \"#utility.yul\":8441:8447   */\n      dup5\n        /* \"#utility.yul\":8435:8439   */\n      dup5\n        /* \"#utility.yul\":8391:8456   */\n      tag_73\n      jump\t// in\n    tag_178:\n        /* \"#utility.yul\":8326:8462   */\n      pop\n        /* \"#utility.yul\":8273:8462   */\n      pop\n      pop\n      jump\t// out\n        /* \"#utility.yul\":8468:8654   */\n    tag_76:\n        /* \"#utility.yul\":8528:8648   */\n    tag_180:\n        /* \"#utility.yul\":8545:8548   */\n      dup2\n        /* \"#utility.yul\":8538:8543   */\n      dup2\n        /* \"#utility.yul\":8535:8549   */\n      lt\n        /* \"#utility.yul\":8528:8648   */\n      iszero\n      tag_182\n      jumpi\n        /* \"#utility.yul\":8599:8638   */\n      tag_183\n        /* \"#utility.yul\":8636:8637   */\n      0x00\n        /* \"#utility.yul\":8629:8634   */\n      dup3\n        /* \"#utility.yul\":8599:8638   */\n      tag_75\n      jump\t// in\n    tag_183:\n        /* \"#utility.yul\":8572:8573   */\n      0x01\n        /* \"#utility.yul\":8565:8570   */\n      dup2\n        /* \"#utility.yul\":8561:8574   */\n      add\n        /* \"#utility.yul\":8552:8574   */\n      swap1\n      pop\n        /* \"#utility.yul\":8528:8648   */\n      jump(tag_180)\n    tag_182:\n        /* \"#utility.yul\":8468:8654   */\n      pop\n      pop\n      jump\t// out\n        /* \"#utility.yul\":8660:9203   */\n    tag_77:\n        /* \"#utility.yul\":8761:8763   */\n      0x1f\n        /* \"#utility.yul\":8756:8759   */\n      dup3\n        /* \"#utility.yul\":8753:8764   */\n      gt\n        /* \"#utility.yul\":8750:9196   */\n      iszero\n      tag_185\n      jumpi\n        /* \"#utility.yul\":8795:8833   */\n      tag_186\n        /* \"#utility.yul\":8827:8832   */\n      dup2\n        /* \"#utility.yul\":8795:8833   */\n      tag_66\n      jump\t// in\n    tag_186:\n        /* \"#utility.yul\":8879:8908   */\n      tag_187\n        /* \"#utility.yul\":8897:8907   */\n      dup5\n        /* \"#utility.yul\":8879:8908   */\n      tag_67\n      jump\t// in\n    tag_187:\n        /* \"#utility.yul\":8869:8877   */\n      dup2\n        /* \"#utility.yul\":8865:8909   */\n      add\n        /* \"#utility.yul\":9062:9064   */\n      0x20\n        /* \"#utility.yul\":9050:9060   */\n      dup6\n        /* \"#utility.yul\":9047:9065   */\n      lt\n        /* \"#utility.yul\":9044:9093   */\n      iszero\n      tag_188\n      jumpi\n        /* \"#utility.yul\":9083:9091   */\n      dup2\n        /* \"#utility.yul\":9068:9091   */\n      swap1\n      pop\n        /* \"#utility.yul\":9044:9093   */\n    tag_188:\n        /* \"#utility.yul\":9106:9186   */\n      tag_189\n        /* \"#utility.yul\":9162:9184   */\n      tag_190\n        /* \"#utility.yul\":9180:9183   */\n      dup6\n        /* \"#utility.yul\":9162:9184   */\n      tag_67\n      jump\t// in\n    tag_190:\n        /* \"#utility.yul\":9152:9160   */\n      dup4\n        /* \"#utility.yul\":9148:9185   */\n      add\n        /* \"#utility.yul\":9135:9146   */\n      dup3\n        /* \"#utility.yul\":9106:9186   */\n      tag_76\n      jump\t// in\n    tag_189:\n        /* \"#utility.yul\":8765:9196   */\n      pop\n      pop\n        /* \"#utility.yul\":8750:9196   */\n    tag_185:\n        /* \"#utility.yul\":8660:9203   */\n      pop\n      pop\n      pop\n      jump\t// out\n        /* \"#utility.yul\":9209:9326   */\n    tag_78:\n        /* \"#utility.yul\":9263:9271   */\n      0x00\n        /* \"#utility.yul\":9313:9318   */\n      dup3\n        /* \"#utility.yul\":9307:9311   */\n      dup3\n        /* \"#utility.yul\":9303:9319   */\n      shr\n        /* \"#utility.yul\":9282:9319   */\n      swap1\n      pop\n        /* \"#utility.yul\":9209:9326   */\n      swap3\n      swap2\n      pop\n      pop\n      jump\t// out\n        /* \"#utility.yul\":9332:9501   */\n    tag_79:\n        /* \"#utility.yul\":9376:9382   */\n      0x00\n        /* \"#utility.yul\":9409:9460   */\n      tag_193\n        /* \"#utility.yul\":9457:9458   */\n      0x00\n        /* \"#utility.yul\":9453:9459   */\n      not\n        /* \"#utility.yul\":9445:9450   */\n      dup5\n        /* \"#utility.yul\":9442:9443   */\n      0x08\n        /* \"#utility.yul\":9438:9451   */\n      mul\n        /* \"#utility.yul\":9409:9460   */\n      tag_78\n      jump\t// in\n    tag_193:\n        /* \"#utility.yul\":9405:9461   */\n      not\n        /* \"#utility.yul\":9490:9494   */\n      dup1\n        /* \"#utility.yul\":9484:9488   */\n      dup4\n        /* \"#utility.yul\":9480:9495   */\n      and\n        /* \"#utility.yul\":9470:9495   */\n      swap2\n      pop\n        /* \"#utility.yul\":9383:9501   */\n      pop\n        /* \"#utility.yul\":9332:9501   */\n      swap3\n      swap2\n      pop\n      pop\n      jump\t// out\n        /* \"#utility.yul\":9506:9801   */\n    tag_80:\n        /* \"#utility.yul\":9582:9586   */\n      0x00\n        /* \"#utility.yul\":9728:9757   */\n      tag_195\n        /* \"#utility.yul\":9753:9756   */\n      dup4\n        /* \"#utility.yul\":9747:9751   */\n      dup4\n        /* \"#utility.yul\":9728:9757   */\n      tag_79\n      jump\t// in\n    tag_195:\n        /* \"#utility.yul\":9720:9757   */\n      swap2\n      pop\n        /* \"#utility.yul\":9790:9793   */\n      dup3\n        /* \"#utility.yul\":9787:9788   */\n      0x02\n        /* \"#utility.yul\":9783:9794   */\n      mul\n        /* \"#utility.yul\":9777:9781   */\n      dup3\n        /* \"#utility.yul\":9774:9795   */\n      or\n        /* \"#utility.yul\":9766:9795   */\n      swap1\n      pop\n        /* \"#utility.yul\":9506:9801   */\n      swap3\n      swap2\n      pop\n      pop\n      jump\t// out\n        /* \"#utility.yul\":9806:11201   */\n    tag_37:\n        /* \"#utility.yul\":9923:9960   */\n      tag_197\n        /* \"#utility.yul\":9956:9959   */\n      dup3\n        /* \"#utility.yul\":9923:9960   */\n      tag_50\n      jump\t// in\n    tag_197:\n        /* \"#utility.yul\":10025:10043   */\n      0xffffffffffffffff\n        /* \"#utility.yul\":10017:10023   */\n      dup2\n        /* \"#utility.yul\":10014:10044   */\n      gt\n        /* \"#utility.yul\":10011:10067   */\n      iszero\n      tag_198\n      jumpi\n        /* \"#utility.yul\":10047:10065   */\n      tag_199\n      tag_57\n      jump\t// in\n    tag_199:\n        /* \"#utility.yul\":10011:10067   */\n    tag_198:\n        /* \"#utility.yul\":10091:10129   */\n      tag_200\n        /* \"#utility.yul\":10123:10127   */\n      dup3\n        /* \"#utility.yul\":10117:10128   */\n      sload\n        /* \"#utility.yul\":10091:10129   */\n      tag_25\n      jump\t// in\n    tag_200:\n        /* \"#utility.yul\":10176:10243   */\n      tag_201\n        /* \"#utility.yul\":10236:10242   */\n      dup3\n        /* \"#utility.yul\":10228:10234   */\n      dup3\n        /* \"#utility.yul\":10222:10226   */\n      dup6\n        /* \"#utility.yul\":10176:10243   */\n      tag_77\n      jump\t// in\n    tag_201:\n        /* \"#utility.yul\":10270:10271   */\n      0x00\n        /* \"#utility.yul\":10294:10298   */\n      0x20\n        /* \"#utility.yul\":10281:10298   */\n      swap1\n      pop\n        /* \"#utility.yul\":10326:10328   */\n      0x1f\n        /* \"#utility.yul\":10318:10324   */\n      dup4\n        /* \"#utility.yul\":10315:10329   */\n      gt\n        /* \"#utility.yul\":10343:10344   */\n      0x01\n        /* \"#utility.yul\":10338:10956   */\n      dup2\n      eq\n      tag_203\n      jumpi\n        /* \"#utility.yul\":11000:11001   */\n      0x00\n        /* \"#utility.yul\":11017:11023   */\n      dup5\n        /* \"#utility.yul\":11014:11091   */\n      iszero\n      tag_204\n      jumpi\n        /* \"#utility.yul\":11066:11075   */\n      dup3\n        /* \"#utility.yul\":11061:11064   */\n      dup8\n        /* \"#utility.yul\":11057:11076   */\n      add\n        /* \"#utility.yul\":11051:11077   */\n      mload\n        /* \"#utility.yul\":11042:11077   */\n      swap1\n      pop\n        /* \"#utility.yul\":11014:11091   */\n    tag_204:\n        /* \"#utility.yul\":11117:11184   */\n      tag_205\n        /* \"#utility.yul\":11177:11183   */\n      dup6\n        /* \"#utility.yul\":11170:11175   */\n      dup3\n        /* \"#utility.yul\":11117:11184   */\n      tag_80\n      jump\t// in\n    tag_205:\n        /* \"#utility.yul\":11111:11115   */\n      dup7\n        /* \"#utility.yul\":11104:11185   */\n      sstore\n        /* \"#utility.yul\":10973:11195   */\n      pop\n        /* \"#utility.yul\":10308:11195   */\n      jump(tag_202)\n        /* \"#utility.yul\":10338:10956   */\n    tag_203:\n        /* \"#utility.yul\":10390:10394   */\n      0x1f\n        /* \"#utility.yul\":10386:10395   */\n      not\n        /* \"#utility.yul\":10378:10384   */\n      dup5\n        /* \"#utility.yul\":10374:10396   */\n      and\n        /* \"#utility.yul\":10424:10461   */\n      tag_206\n        /* \"#utility.yul\":10456:10460   */\n      dup7\n        /* \"#utility.yul\":10424:10461   */\n      tag_66\n      jump\t// in\n    tag_206:\n        /* \"#utility.yul\":10483:10484   */\n      0x00\n        /* \"#utility.yul\":10497:10705   */\n    tag_207:\n        /* \"#utility.yul\":10511:10518   */\n      dup3\n        /* \"#utility.yul\":10508:10509   */\n      dup2\n        /* \"#utility.yul\":10505:10519   */\n      lt\n        /* \"#utility.yul\":10497:10705   */\n      iszero\n      tag_209\n      jumpi\n        /* \"#utility.yul\":10590:10599   */\n      dup5\n        /* \"#utility.yul\":10585:10588   */\n      dup10\n        /* \"#utility.yul\":10581:10600   */\n      add\n        /* \"#utility.yul\":10575:10601   */\n      mload\n        /* \"#utility.yul\":10567:10573   */\n      dup3\n        /* \"#utility.yul\":10560:10602   */\n      sstore\n        /* \"#utility.yul\":10641:10642   */\n      0x01\n        /* \"#utility.yul\":10633:10639   */\n      dup3\n        /* \"#utility.yul\":10629:10643   */\n      add\n        /* \"#utility.yul\":10619:10643   */\n      swap2\n      pop\n        /* \"#utility.yul\":10688:10690   */\n      0x20\n        /* \"#utility.yul\":10677:10686   */\n      dup6\n        /* \"#utility.yul\":10673:10691   */\n      add\n        /* \"#utility.yul\":10660:10691   */\n      swap5\n      pop\n        /* \"#utility.yul\":10534:10538   */\n      0x20\n        /* \"#utility.yul\":10531:10532   */\n      dup2\n        /* \"#utility.yul\":10527:10539   */\n      add\n        /* \"#utility.yul\":10522:10539   */\n      swap1\n      pop\n        /* \"#utility.yul\":10497:10705   */\n      jump(tag_207)\n    tag_209:\n        /* \"#utility.yul\":10733:10739   */\n      dup7\n        /* \"#utility.yul\":10724:10731   */\n      dup4\n        /* \"#utility.yul\":10721:10740   */\n      lt\n        /* \"#utility.yul\":10718:10897   */\n      iszero\n      tag_210\n      jumpi\n        /* \"#utility.yul\":10791:10800   */\n      dup5\n        /* \"#utility.yul\":10786:10789   */\n      dup10\n        /* \"#utility.yul\":10782:10801   */\n      add\n        /* \"#utility.yul\":10776:10802   */\n      mload\n        /* \"#utility.yul\":10834:10882   */\n      tag_211\n        /* \"#utility.yul\":10876:10880   */\n      0x1f\n        /* \"#utility.yul\":10868:10874   */\n      dup10\n        /* \"#utility.yul\":10864:10881   */\n      and\n        /* \"#utility.yul\":10853:10862   */\n      dup3\n        /* \"#utility.yul\":10834:10882   */\n      tag_79\n      jump\t// in\n    tag_211:\n        /* \"#utility.yul\":10826:10832   */\n      dup4\n        /* \"#utility.yul\":10819:10883   */\n      sstore\n        /* \"#utility.yul\":10741:10897   */\n      pop\n        /* \"#utility.yul\":10718:10897   */\n    tag_210:\n        /* \"#utility.yul\":10943:10944   */\n      0x01\n        /* \"#utility.yul\":10939:10940   */\n      0x02\n        /* \"#utility.yul\":10931:10937   */\n      dup9\n        /* \"#utility.yul\":10927:10941   */\n      mul\n        /* \"#utility.yul\":10923:10945   */\n      add\n        /* \"#utility.yul\":10917:10921   */\n      dup9\n        /* \"#utility.yul\":10910:10946   */\n      sstore\n        /* \"#utility.yul\":10345:10956   */\n      pop\n      pop\n      pop\n        /* \"#utility.yul\":10308:11195   */\n    tag_202:\n      pop\n        /* \"#utility.yul\":9898:11201   */\n      pop\n      pop\n      pop\n        /* \"#utility.yul\":9806:11201   */\n      pop\n      pop\n      jump\t// out\n        /* \"#utility.yul\":11207:11740   */\n    tag_39:\n        /* \"#utility.yul\":11376:11380   */\n      0x00\n        /* \"#utility.yul\":11414:11416   */\n      0x60\n        /* \"#utility.yul\":11403:11412   */\n      dup3\n        /* \"#utility.yul\":11399:11417   */\n      add\n        /* \"#utility.yul\":11391:11417   */\n      swap1\n      pop\n        /* \"#utility.yul\":11427:11498   */\n      tag_213\n        /* \"#utility.yul\":11495:11496   */\n      0x00\n        /* \"#utility.yul\":11484:11493   */\n      dup4\n        /* \"#utility.yul\":11480:11497   */\n      add\n        /* \"#utility.yul\":11471:11477   */\n      dup7\n        /* \"#utility.yul\":11427:11498   */\n      tag_46\n      jump\t// in\n    tag_213:\n        /* \"#utility.yul\":11508:11580   */\n      tag_214\n        /* \"#utility.yul\":11576:11578   */\n      0x20\n        /* \"#utility.yul\":11565:11574   */\n      dup4\n        /* \"#utility.yul\":11561:11579   */\n      add\n        /* \"#utility.yul\":11552:11558   */\n      dup6\n        /* \"#utility.yul\":11508:11580   */\n      tag_49\n      jump\t// in\n    tag_214:\n        /* \"#utility.yul\":11627:11636   */\n      dup2\n        /* \"#utility.yul\":11621:11625   */\n      dup2\n        /* \"#utility.yul\":11617:11637   */\n      sub\n        /* \"#utility.yul\":11612:11614   */\n      0x40\n        /* \"#utility.yul\":11601:11610   */\n      dup4\n        /* \"#utility.yul\":11597:11615   */\n      add\n        /* \"#utility.yul\":11590:11638   */\n      mstore\n        /* \"#utility.yul\":11655:11733   */\n      tag_215\n        /* \"#utility.yul\":11728:11732   */\n      dup2\n        /* \"#utility.yul\":11719:11725   */\n      dup5\n        /* \"#utility.yul\":11655:11733   */\n      tag_54\n      jump\t// in\n    tag_215:\n        /* \"#utility.yul\":11647:11733   */\n      swap1\n      pop\n        /* \"#utility.yul\":11207:11740   */\n      swap5\n      swap4\n      pop\n      pop\n      pop\n      pop\n      jump\t// out\n\n    auxdata: 0xa264697066735822122020a3b9d9f363167074cc98a16bef0868560325f0ec5f6685736de98a5755e5da64736f6c634300081a0033\n}\n",
				"bytecode": {
					"linkReferences": {},
					"object": "6080604052348015600e575f80fd5b506109d28061001c5f395ff3fe608060405234801561000f575f80fd5b506004361061004a575f3560e01c80630b1e7f831461004e57806317906c2e146100815780638d2f82681461009f578063c7303c61146100bb575b5f80fd5b61006860048036038101906100639190610364565b6100d7565b604051610078949392919061044d565b60405180910390f35b6100896101a8565b6040516100969190610497565b60405180910390f35b6100b960048036038101906100b49190610364565b6101ad565b005b6100d560048036038101906100d091906105dc565b610210565b005b6001602052805f5260405f205f91509050805f015490806001015f9054906101000a900473ffffffffffffffffffffffffffffffffffffffff169080600201805461012190610650565b80601f016020809104026020016040519081016040528092919081815260200182805461014d90610650565b80156101985780601f1061016f57610100808354040283529160200191610198565b820191905f5260205f20905b81548152906001019060200180831161017b57829003601f168201915b5050505050908060030154905084565b5f5481565b60015f8281526020019081526020015f206003015f8154809291906101d1906106ad565b91905055507f6a0b8f59f9c487e0ac936d2eeb3577465e68f3a095b52ded463ad57d37ae7a30816040516102059190610497565b60405180910390a150565b5f80815480929190610221906106ad565b919050555060405180608001604052805f5481526020013373ffffffffffffffffffffffffffffffffffffffff1681526020018281526020015f81525060015f805481526020019081526020015f205f820151815f01556020820151816001015f6101000a81548173ffffffffffffffffffffffffffffffffffffffff021916908373ffffffffffffffffffffffffffffffffffffffff16021790555060408201518160020190816102d39190610891565b50606082015181600301559050507f8e40a51278abe2f4b410c0a96ff0bdd024b22666ca334062bf72afd596984bd65f54338360405161031593929190610960565b60405180910390a150565b5f604051905090565b5f80fd5b5f80fd5b5f819050919050565b61034381610331565b811461034d575f80fd5b50565b5f8135905061035e8161033a565b92915050565b5f6020828403121561037957610378610329565b5b5f61038684828501610350565b91505092915050565b61039881610331565b82525050565b5f73ffffffffffffffffffffffffffffffffffffffff82169050919050565b5f6103c78261039e565b9050919050565b6103d7816103bd565b82525050565b5f81519050919050565b5f82825260208201905092915050565b8281835e5f83830152505050565b5f601f19601f8301169050919050565b5f61041f826103dd565b61042981856103e7565b93506104398185602086016103f7565b61044281610405565b840191505092915050565b5f6080820190506104605f83018761038f565b61046d60208301866103ce565b818103604083015261047f8185610415565b905061048e606083018461038f565b95945050505050565b5f6020820190506104aa5f83018461038f565b92915050565b5f80fd5b5f80fd5b7f4e487b71000000000000000000000000000000000000000000000000000000005f52604160045260245ffd5b6104ee82610405565b810181811067ffffffffffffffff8211171561050d5761050c6104b8565b5b80604052505050565b5f61051f610320565b905061052b82826104e5565b919050565b5f67ffffffffffffffff82111561054a576105496104b8565b5b61055382610405565b9050602081019050919050565b828183375f83830152505050565b5f61058061057b84610530565b610516565b90508281526020810184848401111561059c5761059b6104b4565b5b6105a7848285610560565b509392505050565b5f82601f8301126105c3576105c26104b0565b5b81356105d384826020860161056e565b91505092915050565b5f602082840312156105f1576105f0610329565b5b5f82013567ffffffffffffffff81111561060e5761060d61032d565b5b61061a848285016105af565b91505092915050565b7f4e487b71000000000000000000000000000000000000000000000000000000005f52602260045260245ffd5b5f600282049050600182168061066757607f821691505b60208210810361067a57610679610623565b5b50919050565b7f4e487b71000000000000000000000000000000000000000000000000000000005f52601160045260245ffd5b5f6106b782610331565b91507fffffffffffffffffffffffffffffffffffffffffffffffffffffffffffffffff82036106e9576106e8610680565b5b600182019050919050565b5f819050815f5260205f209050919050565b5f6020601f8301049050919050565b5f82821b905092915050565b5f600883026107507fffffffffffffffffffffffffffffffffffffffffffffffffffffffffffffffff82610715565b61075a8683610715565b95508019841693508086168417925050509392505050565b5f819050919050565b5f61079561079061078b84610331565b610772565b610331565b9050919050565b5f819050919050565b6107ae8361077b565b6107c26107ba8261079c565b848454610721565b825550505050565b5f90565b6107d66107ca565b6107e18184846107a5565b505050565b5b81811015610804576107f95f826107ce565b6001810190506107e7565b5050565b601f8211156108495761081a816106f4565b61082384610706565b81016020851015610832578190505b61084661083e85610706565b8301826107e6565b50505b505050565b5f82821c905092915050565b5f6108695f198460080261084e565b1980831691505092915050565b5f610881838361085a565b9150826002028217905092915050565b61089a826103dd565b67ffffffffffffffff8111156108b3576108b26104b8565b5b6108bd8254610650565b6108c8828285610808565b5f60209050601f8311600181146108f9575f84156108e7578287015190505b6108f18582610876565b865550610958565b601f198416610907866106f4565b5f5b8281101561092e57848901518255600182019150602085019450602081019050610909565b8683101561094b5784890151610947601f89168261085a565b8355505b6001600288020188555050505b505050505050565b5f6060820190506109735f83018661038f565b61098060208301856103ce565b81810360408301526109928184610415565b905094935050505056fea264697066735822122020a3b9d9f363167074cc98a16bef0868560325f0ec5f6685736de98a5755e5da64736f6c634300081a0033",
					"opcodes": "PUSH1 0x80 PUSH1 0x40 MSTORE CALLVALUE DUP1 ISZERO PUSH1 0xE JUMPI PUSH0 DUP1 REVERT JUMPDEST POP PUSH2 0x9D2 DUP1 PUSH2 0x1C PUSH0 CODECOPY PUSH0 RETURN INVALID PUSH1 0x80 PUSH1 0x40 MSTORE CALLVALUE DUP1 ISZERO PUSH2 0xF JUMPI PUSH0 DUP1 REVERT JUMPDEST POP PUSH1 0x4 CALLDATASIZE LT PUSH2 0x4A JUMPI PUSH0 CALLDATALOAD PUSH1 0xE0 SHR DUP1 PUSH4 0xB1E7F83 EQ PUSH2 0x4E JUMPI DUP1 PUSH4 0x17906C2E EQ PUSH2 0x81 JUMPI DUP1 PUSH4 0x8D2F8268 EQ PUSH2 0x9F JUMPI DUP1 PUSH4 0xC7303C61 EQ PUSH2 0xBB JUMPI JUMPDEST PUSH0 DUP1 REVERT JUMPDEST PUSH2 0x68 PUSH1 0x4 DUP1 CALLDATASIZE SUB DUP2 ADD SWAP1 PUSH2 0x63 SWAP2 SWAP1 PUSH2 0x364 JUMP JUMPDEST PUSH2 0xD7 JUMP JUMPDEST PUSH1 0x40 MLOAD PUSH2 0x78 SWAP5 SWAP4 SWAP3 SWAP2 SWAP1 PUSH2 0x44D JUMP JUMPDEST PUSH1 0x40 MLOAD DUP1 SWAP2 SUB SWAP1 RETURN JUMPDEST PUSH2 0x89 PUSH2 0x1A8 JUMP JUMPDEST PUSH1 0x40 MLOAD PUSH2 0x96 SWAP2 SWAP1 PUSH2 0x497 JUMP JUMPDEST PUSH1 0x40 MLOAD DUP1 SWAP2 SUB SWAP1 RETURN JUMPDEST PUSH2 0xB9 PUSH1 0x4 DUP1 CALLDATASIZE SUB DUP2 ADD SWAP1 PUSH2 0xB4 SWAP2 SWAP1 PUSH2 0x364 JUMP JUMPDEST PUSH2 0x1AD JUMP JUMPDEST STOP JUMPDEST PUSH2 0xD5 PUSH1 0x4 DUP1 CALLDATASIZE SUB DUP2 ADD SWAP1 PUSH2 0xD0 SWAP2 SWAP1 PUSH2 0x5DC JUMP JUMPDEST PUSH2 0x210 JUMP JUMPDEST STOP JUMPDEST PUSH1 0x1 PUSH1 0x20 MSTORE DUP1 PUSH0 MSTORE PUSH1 0x40 PUSH0 KECCAK256 PUSH0 SWAP2 POP SWAP1 POP DUP1 PUSH0 ADD SLOAD SWAP1 DUP1 PUSH1 0x1 ADD PUSH0 SWAP1 SLOAD SWAP1 PUSH2 0x100 EXP SWAP1 DIV PUSH20 0xFFFFFFFFFFFFFFFFFFFFFFFFFFFFFFFFFFFFFFFF AND SWAP1 DUP1 PUSH1 0x2 ADD DUP1 SLOAD PUSH2 0x121 SWAP1 PUSH2 0x650 JUMP JUMPDEST DUP1 PUSH1 0x1F ADD PUSH1 0x20 DUP1 SWAP2 DIV MUL PUSH1 0x20 ADD PUSH1 0x40 MLOAD SWAP1 DUP2 ADD PUSH1 0x40 MSTORE DUP1 SWAP3 SWAP2 SWAP1 DUP2 DUP2 MSTORE PUSH1 0x20 ADD DUP3 DUP1 SLOAD PUSH2 0x14D SWAP1 PUSH2 0x650 JUMP JUMPDEST DUP1 ISZERO PUSH2 0x198 JUMPI DUP1 PUSH1 0x1F LT PUSH2 0x16F JUMPI PUSH2 0x100 DUP1 DUP4 SLOAD DIV MUL DUP4 MSTORE SWAP2 PUSH1 0x20 ADD SWAP2 PUSH2 0x198 JUMP JUMPDEST DUP3 ADD SWAP2 SWAP1 PUSH0 MSTORE PUSH1 0x20 PUSH0 KECCAK256 SWAP1 JUMPDEST DUP2 SLOAD DUP2 MSTORE SWAP1 PUSH1 0x1 ADD SWAP1 PUSH1 0x20 ADD DUP1 DUP4 GT PUSH2 0x17B JUMPI DUP3 SWAP1 SUB PUSH1 0x1F AND DUP3 ADD SWAP2 JUMPDEST POP POP POP POP POP SWAP1 DUP1 PUSH1 0x3 ADD SLOAD SWAP1 POP DUP5 JUMP JUMPDEST PUSH0 SLOAD DUP2 JUMP JUMPDEST PUSH1 0x1 PUSH0 DUP3 DUP2 MSTORE PUSH1 0x20 ADD SWAP1 DUP2 MSTORE PUSH1 0x20 ADD PUSH0 KECCAK256 PUSH1 0x3 ADD PUSH0 DUP2 SLOAD DUP1 SWAP3 SWAP2 SWAP1 PUSH2 0x1D1 SWAP1 PUSH2 0x6AD JUMP JUMPDEST SWAP2 SWAP1 POP SSTORE POP PUSH32 0x6A0B8F59F9C487E0AC936D2EEB3577465E68F3A095B52DED463AD57D37AE7A30 DUP2 PUSH1 0x40 MLOAD PUSH2 0x205 SWAP2 SWAP1 PUSH2 0x497 JUMP JUMPDEST PUSH1 0x40 MLOAD DUP1 SWAP2 SUB SWAP1 LOG1 POP JUMP JUMPDEST PUSH0 DUP1 DUP2 SLOAD DUP1 SWAP3 SWAP2 SWAP1 PUSH2 0x221 SWAP1 PUSH2 0x6AD JUMP JUMPDEST SWAP2 SWAP1 POP SSTORE POP PUSH1 0x40 MLOAD DUP1 PUSH1 0x80 ADD PUSH1 0x40 MSTORE DUP1 PUSH0 SLOAD DUP2 MSTORE PUSH1 0x20 ADD CALLER PUSH20 0xFFFFFFFFFFFFFFFFFFFFFFFFFFFFFFFFFFFFFFFF AND DUP2 MSTORE PUSH1 0x20 ADD DUP3 DUP2 MSTORE PUSH1 0x20 ADD PUSH0 DUP2 MSTORE POP PUSH1 0x1 PUSH0 DUP1 SLOAD DUP2 MSTORE PUSH1 0x20 ADD SWAP1 DUP2 MSTORE PUSH1 0x20 ADD PUSH0 KECCAK256 PUSH0 DUP3 ADD MLOAD DUP2 PUSH0 ADD SSTORE PUSH1 0x20 DUP3 ADD MLOAD DUP2 PUSH1 0x1 ADD PUSH0 PUSH2 0x100 EXP DUP2 SLOAD DUP2 PUSH20 0xFFFFFFFFFFFFFFFFFFFFFFFFFFFFFFFFFFFFFFFF MUL NOT AND SWAP1 DUP4 PUSH20 0xFFFFFFFFFFFFFFFFFFFFFFFFFFFFFFFFFFFFFFFF AND MUL OR SWAP1 SSTORE POP PUSH1 0x40 DUP3 ADD MLOAD DUP2 PUSH1 0x2 ADD SWAP1 DUP2 PUSH2 0x2D3 SWAP2 SWAP1 PUSH2 0x891 JUMP JUMPDEST POP PUSH1 0x60 DUP3 ADD MLOAD DUP2 PUSH1 0x3 ADD SSTORE SWAP1 POP POP PUSH32 0x8E40A51278ABE2F4B410C0A96FF0BDD024B22666CA334062BF72AFD596984BD6 PUSH0 SLOAD CALLER DUP4 PUSH1 0x40 MLOAD PUSH2 0x315 SWAP4 SWAP3 SWAP2 SWAP1 PUSH2 0x960 JUMP JUMPDEST PUSH1 0x40 MLOAD DUP1 SWAP2 SUB SWAP1 LOG1 POP JUMP JUMPDEST PUSH0 PUSH1 0x40 MLOAD SWAP1 POP SWAP1 JUMP JUMPDEST PUSH0 DUP1 REVERT JUMPDEST PUSH0 DUP1 REVERT JUMPDEST PUSH0 DUP2 SWAP1 POP SWAP2 SWAP1 POP JUMP JUMPDEST PUSH2 0x343 DUP2 PUSH2 0x331 JUMP JUMPDEST DUP2 EQ PUSH2 0x34D JUMPI PUSH0 DUP1 REVERT JUMPDEST POP JUMP JUMPDEST PUSH0 DUP2 CALLDATALOAD SWAP1 POP PUSH2 0x35E DUP2 PUSH2 0x33A JUMP JUMPDEST SWAP3 SWAP2 POP POP JUMP JUMPDEST PUSH0 PUSH1 0x20 DUP3 DUP5 SUB SLT ISZERO PUSH2 0x379 JUMPI PUSH2 0x378 PUSH2 0x329 JUMP JUMPDEST JUMPDEST PUSH0 PUSH2 0x386 DUP5 DUP3 DUP6 ADD PUSH2 0x350 JUMP JUMPDEST SWAP2 POP POP SWAP3 SWAP2 POP POP JUMP JUMPDEST PUSH2 0x398 DUP2 PUSH2 0x331 JUMP JUMPDEST DUP3 MSTORE POP POP JUMP JUMPDEST PUSH0 PUSH20 0xFFFFFFFFFFFFFFFFFFFFFFFFFFFFFFFFFFFFFFFF DUP3 AND SWAP1 POP SWAP2 SWAP1 POP JUMP JUMPDEST PUSH0 PUSH2 0x3C7 DUP3 PUSH2 0x39E JUMP JUMPDEST SWAP1 POP SWAP2 SWAP1 POP JUMP JUMPDEST PUSH2 0x3D7 DUP2 PUSH2 0x3BD JUMP JUMPDEST DUP3 MSTORE POP POP JUMP JUMPDEST PUSH0 DUP2 MLOAD SWAP1 POP SWAP2 SWAP1 POP JUMP JUMPDEST PUSH0 DUP3 DUP3 MSTORE PUSH1 0x20 DUP3 ADD SWAP1 POP SWAP3 SWAP2 POP POP JUMP JUMPDEST DUP3 DUP2 DUP4 MCOPY PUSH0 DUP4 DUP4 ADD MSTORE POP POP POP JUMP JUMPDEST PUSH0 PUSH1 0x1F NOT PUSH1 0x1F DUP4 ADD AND SWAP1 POP SWAP2 SWAP1 POP JUMP JUMPDEST PUSH0 PUSH2 0x41F DUP3 PUSH2 0x3DD JUMP JUMPDEST PUSH2 0x429 DUP2 DUP6 PUSH2 0x3E7 JUMP JUMPDEST SWAP4 POP PUSH2 0x439 DUP2 DUP6 PUSH1 0x20 DUP7 ADD PUSH2 0x3F7 JUMP JUMPDEST PUSH2 0x442 DUP2 PUSH2 0x405 JUMP JUMPDEST DUP5 ADD SWAP2 POP POP SWAP3 SWAP2 POP POP JUMP JUMPDEST PUSH0 PUSH1 0x80 DUP3 ADD SWAP1 POP PUSH2 0x460 PUSH0 DUP4 ADD DUP8 PUSH2 0x38F JUMP JUMPDEST PUSH2 0x46D PUSH1 0x20 DUP4 ADD DUP7 PUSH2 0x3CE JUMP JUMPDEST DUP2 DUP2 SUB PUSH1 0x40 DUP4 ADD MSTORE PUSH2 0x47F DUP2 DUP6 PUSH2 0x415 JUMP JUMPDEST SWAP1 POP PUSH2 0x48E PUSH1 0x60 DUP4 ADD DUP5 PUSH2 0x38F JUMP JUMPDEST SWAP6 SWAP5 POP POP POP POP POP JUMP JUMPDEST PUSH0 PUSH1 0x20 DUP3 ADD SWAP1 POP PUSH2 0x4AA PUSH0 DUP4 ADD DUP5 PUSH2 0x38F JUMP JUMPDEST SWAP3 SWAP2 POP POP JUMP JUMPDEST PUSH0 DUP1 REVERT JUMPDEST PUSH0 DUP1 REVERT JUMPDEST PUSH32 0x4E487B7100000000000000000000000000000000000000000000000000000000 PUSH0 MSTORE PUSH1 0x41 PUSH1 0x4 MSTORE PUSH1 0x24 PUSH0 REVERT JUMPDEST PUSH2 0x4EE DUP3 PUSH2 0x405 JUMP JUMPDEST DUP2 ADD DUP2 DUP2 LT PUSH8 0xFFFFFFFFFFFFFFFF DUP3 GT OR ISZERO PUSH2 0x50D JUMPI PUSH2 0x50C PUSH2 0x4B8 JUMP JUMPDEST JUMPDEST DUP1 PUSH1 0x40 MSTORE POP POP POP JUMP JUMPDEST PUSH0 PUSH2 0x51F PUSH2 0x320 JUMP JUMPDEST SWAP1 POP PUSH2 0x52B DUP3 DUP3 PUSH2 0x4E5 JUMP JUMPDEST SWAP2 SWAP1 POP JUMP JUMPDEST PUSH0 PUSH8 0xFFFFFFFFFFFFFFFF DUP3 GT ISZERO PUSH2 0x54A JUMPI PUSH2 0x549 PUSH2 0x4B8 JUMP JUMPDEST JUMPDEST PUSH2 0x553 DUP3 PUSH2 0x405 JUMP JUMPDEST SWAP1 POP PUSH1 0x20 DUP2 ADD SWAP1 POP SWAP2 SWAP1 POP JUMP JUMPDEST DUP3 DUP2 DUP4 CALLDATACOPY PUSH0 DUP4 DUP4 ADD MSTORE POP POP POP JUMP JUMPDEST PUSH0 PUSH2 0x580 PUSH2 0x57B DUP5 PUSH2 0x530 JUMP JUMPDEST PUSH2 0x516 JUMP JUMPDEST SWAP1 POP DUP3 DUP2 MSTORE PUSH1 0x20 DUP2 ADD DUP5 DUP5 DUP5 ADD GT ISZERO PUSH2 0x59C JUMPI PUSH2 0x59B PUSH2 0x4B4 JUMP JUMPDEST JUMPDEST PUSH2 0x5A7 DUP5 DUP3 DUP6 PUSH2 0x560 JUMP JUMPDEST POP SWAP4 SWAP3 POP POP POP JUMP JUMPDEST PUSH0 DUP3 PUSH1 0x1F DUP4 ADD SLT PUSH2 0x5C3 JUMPI PUSH2 0x5C2 PUSH2 0x4B0 JUMP JUMPDEST JUMPDEST DUP2 CALLDATALOAD PUSH2 0x5D3 DUP5 DUP3 PUSH1 0x20 DUP7 ADD PUSH2 0x56E JUMP JUMPDEST SWAP2 POP POP SWAP3 SWAP2 POP POP JUMP JUMPDEST PUSH0 PUSH1 0x20 DUP3 DUP5 SUB SLT ISZERO PUSH2 0x5F1 JUMPI PUSH2 0x5F0 PUSH2 0x329 JUMP JUMPDEST JUMPDEST PUSH0 DUP3 ADD CALLDATALOAD PUSH8 0xFFFFFFFFFFFFFFFF DUP2 GT ISZERO PUSH2 0x60E JUMPI PUSH2 0x60D PUSH2 0x32D JUMP JUMPDEST JUMPDEST PUSH2 0x61A DUP5 DUP3 DUP6 ADD PUSH2 0x5AF JUMP JUMPDEST SWAP2 POP POP SWAP3 SWAP2 POP POP JUMP JUMPDEST PUSH32 0x4E487B7100000000000000000000000000000000000000000000000000000000 PUSH0 MSTORE PUSH1 0x22 PUSH1 0x4 MSTORE PUSH1 0x24 PUSH0 REVERT JUMPDEST PUSH0 PUSH1 0x2 DUP3 DIV SWAP1 POP PUSH1 0x1 DUP3 AND DUP1 PUSH2 0x667 JUMPI PUSH1 0x7F DUP3 AND SWAP2 POP JUMPDEST PUSH1 0x20 DUP3 LT DUP2 SUB PUSH2 0x67A JUMPI PUSH2 0x679 PUSH2 0x623 JUMP JUMPDEST JUMPDEST POP SWAP2 SWAP1 POP JUMP JUMPDEST PUSH32 0x4E487B7100000000000000000000000000000000000000000000000000000000 PUSH0 MSTORE PUSH1 0x11 PUSH1 0x4 MSTORE PUSH1 0x24 PUSH0 REVERT JUMPDEST PUSH0 PUSH2 0x6B7 DUP3 PUSH2 0x331 JUMP JUMPDEST SWAP2 POP PUSH32 0xFFFFFFFFFFFFFFFFFFFFFFFFFFFFFFFFFFFFFFFFFFFFFFFFFFFFFFFFFFFFFFFF DUP3 SUB PUSH2 0x6E9 JUMPI PUSH2 0x6E8 PUSH2 0x680 JUMP JUMPDEST JUMPDEST PUSH1 0x1 DUP3 ADD SWAP1 POP SWAP2 SWAP1 POP JUMP JUMPDEST PUSH0 DUP2 SWAP1 POP DUP2 PUSH0 MSTORE PUSH1 0x20 PUSH0 KECCAK256 SWAP1 POP SWAP2 SWAP1 POP JUMP JUMPDEST PUSH0 PUSH1 0x20 PUSH1 0x1F DUP4 ADD DIV SWAP1 POP SWAP2 SWAP1 POP JUMP JUMPDEST PUSH0 DUP3 DUP3 SHL SWAP1 POP SWAP3 SWAP2 POP POP JUMP JUMPDEST PUSH0 PUSH1 0x8 DUP4 MUL PUSH2 0x750 PUSH32 0xFFFFFFFFFFFFFFFFFFFFFFFFFFFFFFFFFFFFFFFFFFFFFFFFFFFFFFFFFFFFFFFF DUP3 PUSH2 0x715 JUMP JUMPDEST PUSH2 0x75A DUP7 DUP4 PUSH2 0x715 JUMP JUMPDEST SWAP6 POP DUP1 NOT DUP5 AND SWAP4 POP DUP1 DUP7 AND DUP5 OR SWAP3 POP POP POP SWAP4 SWAP3 POP POP POP JUMP JUMPDEST PUSH0 DUP2 SWAP1 POP SWAP2 SWAP1 POP JUMP JUMPDEST PUSH0 PUSH2 0x795 PUSH2 0x790 PUSH2 0x78B DUP5 PUSH2 0x331 JUMP JUMPDEST PUSH2 0x772 JUMP JUMPDEST PUSH2 0x331 JUMP JUMPDEST SWAP1 POP SWAP2 SWAP1 POP JUMP JUMPDEST PUSH0 DUP2 SWAP1 POP SWAP2 SWAP1 POP JUMP JUMPDEST PUSH2 0x7AE DUP4 PUSH2 0x77B JUMP JUMPDEST PUSH2 0x7C2 PUSH2 0x7BA DUP3 PUSH2 0x79C JUMP JUMPDEST DUP5 DUP5 SLOAD PUSH2 0x721 JUMP JUMPDEST DUP3 SSTORE POP POP POP POP JUMP JUMPDEST PUSH0 SWAP1 JUMP JUMPDEST PUSH2 0x7D6 PUSH2 0x7CA JUMP JUMPDEST PUSH2 0x7E1 DUP2 DUP5 DUP5 PUSH2 0x7A5 JUMP JUMPDEST POP POP POP JUMP JUMPDEST JUMPDEST DUP2 DUP2 LT ISZERO PUSH2 0x804 JUMPI PUSH2 0x7F9 PUSH0 DUP3 PUSH2 0x7CE JUMP JUMPDEST PUSH1 0x1 DUP2 ADD SWAP1 POP PUSH2 0x7E7 JUMP JUMPDEST POP POP JUMP JUMPDEST PUSH1 0x1F DUP3 GT ISZERO PUSH2 0x849 JUMPI PUSH2 0x81A DUP2 PUSH2 0x6F4 JUMP JUMPDEST PUSH2 0x823 DUP5 PUSH2 0x706 JUMP JUMPDEST DUP2 ADD PUSH1 0x20 DUP6 LT ISZERO PUSH2 0x832 JUMPI DUP2 SWAP1 POP JUMPDEST PUSH2 0x846 PUSH2 0x83E DUP6 PUSH2 0x706 JUMP JUMPDEST DUP4 ADD DUP3 PUSH2 0x7E6 JUMP JUMPDEST POP POP JUMPDEST POP POP POP JUMP JUMPDEST PUSH0 DUP3 DUP3 SHR SWAP1 POP SWAP3 SWAP2 POP POP JUMP JUMPDEST PUSH0 PUSH2 0x869 PUSH0 NOT DUP5 PUSH1 0x8 MUL PUSH2 0x84E JUMP JUMPDEST NOT DUP1 DUP4 AND SWAP2 POP POP SWAP3 SWAP2 POP POP JUMP JUMPDEST PUSH0 PUSH2 0x881 DUP4 DUP4 PUSH2 0x85A JUMP JUMPDEST SWAP2 POP DUP3 PUSH1 0x2 MUL DUP3 OR SWAP1 POP SWAP3 SWAP2 POP POP JUMP JUMPDEST PUSH2 0x89A DUP3 PUSH2 0x3DD JUMP JUMPDEST PUSH8 0xFFFFFFFFFFFFFFFF DUP2 GT ISZERO PUSH2 0x8B3 JUMPI PUSH2 0x8B2 PUSH2 0x4B8 JUMP JUMPDEST JUMPDEST PUSH2 0x8BD DUP3 SLOAD PUSH2 0x650 JUMP JUMPDEST PUSH2 0x8C8 DUP3 DUP3 DUP6 PUSH2 0x808 JUMP JUMPDEST PUSH0 PUSH1 0x20 SWAP1 POP PUSH1 0x1F DUP4 GT PUSH1 0x1 DUP2 EQ PUSH2 0x8F9 JUMPI PUSH0 DUP5 ISZERO PUSH2 0x8E7 JUMPI DUP3 DUP8 ADD MLOAD SWAP1 POP JUMPDEST PUSH2 0x8F1 DUP6 DUP3 PUSH2 0x876 JUMP JUMPDEST DUP7 SSTORE POP PUSH2 0x958 JUMP JUMPDEST PUSH1 0x1F NOT DUP5 AND PUSH2 0x907 DUP7 PUSH2 0x6F4 JUMP JUMPDEST PUSH0 JUMPDEST DUP3 DUP2 LT ISZERO PUSH2 0x92E JUMPI DUP5 DUP10 ADD MLOAD DUP3 SSTORE PUSH1 0x1 DUP3 ADD SWAP2 POP PUSH1 0x20 DUP6 ADD SWAP5 POP PUSH1 0x20 DUP2 ADD SWAP1 POP PUSH2 0x909 JUMP JUMPDEST DUP7 DUP4 LT ISZERO PUSH2 0x94B JUMPI DUP5 DUP10 ADD MLOAD PUSH2 0x947 PUSH1 0x1F DUP10 AND DUP3 PUSH2 0x85A JUMP JUMPDEST DUP4 SSTORE POP JUMPDEST PUSH1 0x1 PUSH1 0x2 DUP9 MUL ADD DUP9 SSTORE POP POP POP JUMPDEST POP POP POP POP POP POP JUMP JUMPDEST PUSH0 PUSH1 0x60 DUP3 ADD SWAP1 POP PUSH2 0x973 PUSH0 DUP4 ADD DUP7 PUSH2 0x38F JUMP JUMPDEST PUSH2 0x980 PUSH1 0x20 DUP4 ADD DUP6 PUSH2 0x3CE JUMP JUMPDEST DUP2 DUP2 SUB PUSH1 0x40 DUP4 ADD MSTORE PUSH2 0x992 DUP2 DUP5 PUSH2 0x415 JUMP JUMPDEST SWAP1 POP SWAP5 SWAP4 POP POP POP POP JUMP INVALID LOG2 PUSH5 0x6970667358 0x22 SLT KECCAK256 KECCAK256 LOG3 0xB9 0xD9 RETURN PUSH4 0x167074CC SWAP9 LOG1 PUSH12 0xEF0868560325F0EC5F668573 PUSH14 0xE98A5755E5DA64736F6C63430008 BYTE STOP CALLER "
				},
				"gasEstimates": {
					"creation": {
						"codeDepositCost": "502800",
						"executionCost": "535",
						"totalCost": "503335"
					},
					"external": {
						"createPost(string)": "infinite",
						"postCount()": "2424",
						"posts(uint256)": "infinite",
						"upvotePost(uint256)": "infinite"
					}
				},
				"methodIdentifiers": {
					"createPost(string)": "c7303c61",
					"postCount()": "17906c2e",
					"posts(uint256)": "0b1e7f83",
					"upvotePost(uint256)": "8d2f8268"
				}
			},
			"storageLayout": {
				"storage": [
					{
						"astId": 12,
						"contract": "contracts/Community.sol:Community",
						"label": "postCount",
						"offset": 0,
						"slot": "0",
						"type": "t_uint256"
					},
					{
						"astId": 17,
						"contract": "contracts/Community.sol:Community",
						"label": "posts",
						"offset": 0,
						"slot": "1",
						"type": "t_mapping(t_uint256,t_struct(Post)10_storage)"
					}
				],
				"types": {
					"t_address": {
						"encoding": "inplace",
						"label": "address",
						"numberOfBytes": "20"
					},
					"t_mapping(t_uint256,t_struct(Post)10_storage)": {
						"encoding": "mapping",
						"key": "t_uint256",
						"label": "mapping(uint256 => struct Community.Post)",
						"numberOfBytes": "32",
						"value": "t_struct(Post)10_storage"
					},
					"t_string_storage": {
						"encoding": "bytes",
						"label": "string",
						"numberOfBytes": "32"
					},
					"t_struct(Post)10_storage": {
						"encoding": "inplace",
						"label": "struct Community.Post",
						"members": [
							{
								"astId": 3,
								"contract": "contracts/Community.sol:Community",
								"label": "id",
								"offset": 0,
								"slot": "0",
								"type": "t_uint256"
							},
							{
								"astId": 5,
								"contract": "contracts/Community.sol:Community",
								"label": "author",
								"offset": 0,
								"slot": "1",
								"type": "t_address"
							},
							{
								"astId": 7,
								"contract": "contracts/Community.sol:Community",
								"label": "content",
								"offset": 0,
								"slot": "2",
								"type": "t_string_storage"
							},
							{
								"astId": 9,
								"contract": "contracts/Community.sol:Community",
								"label": "upvotes",
								"offset": 0,
								"slot": "3",
								"type": "t_uint256"
							}
						],
						"numberOfBytes": "128"
					},
					"t_uint256": {
						"encoding": "inplace",
						"label": "uint256",
						"numberOfBytes": "32"
					}
				}
			},
			"userdoc": {
				"kind": "user",
				"methods": {},
				"version": 1
			}
		}
	}
}